{"contracts/Raffle.sol":{"Raffle":{"abi":[{"inputs":[{"internalType":"uint256","name":"_entranceFee","type":"uint256"},{"internalType":"address","name":"_VRFCoordinatorAddress","type":"address"},{"internalType":"uint64","name":"_subscriptionId","type":"uint64"},{"internalType":"bytes32","name":"_gasLane","type":"bytes32"},{"internalType":"uint32","name":"_callBackGasLimit","type":"uint32"},{"internalType":"uint256","name":"_interval","type":"uint256"}],"stateMutability":"nonpayable","type":"constructor"},{"inputs":[{"internalType":"address","name":"have","type":"address"},{"internalType":"address","name":"want","type":"address"}],"name":"OnlyCoordinatorCanFulfill","type":"error"},{"inputs":[],"name":"Raffle__NotEnoughEth","type":"error"},{"inputs":[],"name":"Raffle__TransferFailed","type":"error"},{"anonymous":false,"inputs":[{"indexed":true,"internalType":"address","name":"player","type":"address"}],"name":"RaffleEntered","type":"event"},{"anonymous":false,"inputs":[{"indexed":false,"internalType":"address","name":"winner","type":"address"}],"name":"WinnerPicked","type":"event"},{"stateMutability":"payable","type":"fallback"},{"inputs":[{"internalType":"bytes","name":"","type":"bytes"}],"name":"checkUpkeep","outputs":[{"internalType":"bool","name":"upkeepNeeded","type":"bool"},{"internalType":"bytes","name":"","type":"bytes"}],"stateMutability":"view","type":"function"},{"inputs":[],"name":"enterRaffle","outputs":[],"stateMutability":"payable","type":"function"},{"inputs":[],"name":"getEntranceFee","outputs":[{"internalType":"uint256","name":"","type":"uint256"}],"stateMutability":"view","type":"function"},{"inputs":[],"name":"getInterval","outputs":[{"internalType":"uint256","name":"","type":"uint256"}],"stateMutability":"view","type":"function"},{"inputs":[],"name":"getLastTimeStamp","outputs":[{"internalType":"uint256","name":"","type":"uint256"}],"stateMutability":"view","type":"function"},{"inputs":[{"internalType":"uint256","name":"index","type":"uint256"}],"name":"getPlayer","outputs":[{"internalType":"address","name":"","type":"address"}],"stateMutability":"view","type":"function"},{"inputs":[],"name":"getRaffleState","outputs":[{"internalType":"enum Raffle.RaffleState","name":"","type":"uint8"}],"stateMutability":"view","type":"function"},{"inputs":[],"name":"getRecentWinner","outputs":[{"internalType":"address","name":"","type":"address"}],"stateMutability":"view","type":"function"},{"inputs":[{"internalType":"bytes","name":"","type":"bytes"}],"name":"performUpkeep","outputs":[],"stateMutability":"nonpayable","type":"function"},{"inputs":[{"internalType":"uint256","name":"","type":"uint256"}],"name":"players","outputs":[{"internalType":"address payable","name":"","type":"address"}],"stateMutability":"view","type":"function"},{"inputs":[{"internalType":"uint256","name":"requestId","type":"uint256"},{"internalType":"uint256[]","name":"randomWords","type":"uint256[]"}],"name":"rawFulfillRandomWords","outputs":[],"stateMutability":"nonpayable","type":"function"},{"stateMutability":"payable","type":"receive"}],"devdoc":{"kind":"dev","methods":{},"version":1},"evm":{"bytecode":{"linkReferences":{},"object":"6101606040523480156200001257600080fd5b506040516200146138038062001461833981810160405281019062000038919062000266565b848073ffffffffffffffffffffffffffffffffffffffff1660808173ffffffffffffffffffffffffffffffffffffffff1681525050508560a081815250508473ffffffffffffffffffffffffffffffffffffffff1660c08173ffffffffffffffffffffffffffffffffffffffff16815250508367ffffffffffffffff1660e08167ffffffffffffffff16815250508261010081815250508163ffffffff166101208163ffffffff16815250504260028190555080610140818152505050505050505062000302565b600080fd5b6000819050919050565b6200011a8162000105565b81146200012657600080fd5b50565b6000815190506200013a816200010f565b92915050565b600073ffffffffffffffffffffffffffffffffffffffff82169050919050565b60006200016d8262000140565b9050919050565b6200017f8162000160565b81146200018b57600080fd5b50565b6000815190506200019f8162000174565b92915050565b600067ffffffffffffffff82169050919050565b620001c481620001a5565b8114620001d057600080fd5b50565b600081519050620001e481620001b9565b92915050565b6000819050919050565b620001ff81620001ea565b81146200020b57600080fd5b50565b6000815190506200021f81620001f4565b92915050565b600063ffffffff82169050919050565b620002408162000225565b81146200024c57600080fd5b50565b600081519050620002608162000235565b92915050565b60008060008060008060c0878903121562000286576200028562000100565b5b60006200029689828a0162000129565b9650506020620002a989828a016200018e565b9550506040620002bc89828a01620001d3565b9450506060620002cf89828a016200020e565b9350506080620002e289828a016200024f565b92505060a0620002f589828a0162000129565b9150509295509295509295565b60805160a05160c05160e0516101005161012051610140516110ef62000372600039600081816105f7015261064701526000610516015260006104d2015260006104f30152600061049601526000818161029801526103950152600081816102d5015261032901526110ef6000f3fe6080604052600436106100a05760003560e01c8063473f1ddc11610064578063473f1ddc1461015b5780636e04ff0d1461018657806391ad27b4146101c4578063c1c244e8146101ef578063e55ae4e81461021a578063f71d96cb14610257576100a7565b806309bc33a7146100a9578063115cbaf5146100d45780631fe543e3146100ff5780632cfcc539146101285780634585e33b14610132576100a7565b366100a757005b005b3480156100b557600080fd5b506100be610294565b6040516100cb91906108f8565b60405180910390f35b3480156100e057600080fd5b506100e96102bc565b6040516100f6919061098a565b60405180910390f35b34801561010b57600080fd5b5061012660048036038101906101219190610b3e565b6102d3565b005b610130610393565b005b34801561013e57600080fd5b5061015960048036038101906101549190610bf5565b610494565b005b34801561016757600080fd5b506101706105c9565b60405161017d9190610c83565b60405180910390f35b34801561019257600080fd5b506101ad60048036038101906101a89190610bf5565b6105f1565b6040516101bb929190610d38565b60405180910390f35b3480156101d057600080fd5b506101d9610643565b6040516101e691906108f8565b60405180910390f35b3480156101fb57600080fd5b5061020461066b565b60405161021191906108f8565b60405180910390f35b34801561022657600080fd5b50610241600480360381019061023c9190610d68565b610675565b60405161024e9190610c83565b60405180910390f35b34801561026357600080fd5b5061027e60048036038101906102799190610d68565b6106bc565b60405161028b9190610db6565b60405180910390f35b60007f0000000000000000000000000000000000000000000000000000000000000000905090565b6000600160009054906101000a900460ff16905090565b7f000000000000000000000000000000000000000000000000000000000000000073ffffffffffffffffffffffffffffffffffffffff163373ffffffffffffffffffffffffffffffffffffffff161461038557337f00000000000000000000000000000000000000000000000000000000000000006040517f1cf993f400000000000000000000000000000000000000000000000000000000815260040161037c929190610dd1565b60405180910390fd5b61038f82826106fb565b5050565b7f000000000000000000000000000000000000000000000000000000000000000034146103ec576040517fa10e43c700000000000000000000000000000000000000000000000000000000815260040160405180910390fd5b6000339080600181540180825580915050600190039060005260206000200160009091909190916101000a81548173ffffffffffffffffffffffffffffffffffffffff021916908373ffffffffffffffffffffffffffffffffffffffff1602179055503373ffffffffffffffffffffffffffffffffffffffff167f634f3211e3a4e43fee5a21ad9f87ca153b300fc78b1c557a2057dbe9c63bcb4760405160405180910390a2565b7f000000000000000000000000000000000000000000000000000000000000000073ffffffffffffffffffffffffffffffffffffffff16635d3b1d307f00000000000000000000000000000000000000000000000000000000000000007f000000000000000000000000000000000000000000000000000000000000000060037f000000000000000000000000000000000000000000000000000000000000000060016040518663ffffffff1660e01b8152600401610557959493929190610e72565b6020604051808303816000875af1158015610576573d6000803e3d6000fd5b505050506040513d601f19601f8201168201806040525081019061059a9190610eda565b5060018060006101000a81548160ff021916908360018111156105c0576105bf610913565b5b02179055505050565b600060018054906101000a900473ffffffffffffffffffffffffffffffffffffffff16905090565b600060607f0000000000000000000000000000000000000000000000000000000000000000600254426106249190610f36565b1191508160405180602001604052806000815250915091509250929050565b60007f0000000000000000000000000000000000000000000000000000000000000000905090565b6000600254905090565b600080828154811061068a57610689610f6a565b5b9060005260206000200160009054906101000a900473ffffffffffffffffffffffffffffffffffffffff169050919050565b600081815481106106cc57600080fd5b906000526020600020016000915054906101000a900473ffffffffffffffffffffffffffffffffffffffff1681565b600080805490508260008151811061071657610715610f6a565b5b60200260200101516107289190610fc8565b9050600080828154811061073f5761073e610f6a565b5b9060005260206000200160009054906101000a900473ffffffffffffffffffffffffffffffffffffffff169050806001806101000a81548173ffffffffffffffffffffffffffffffffffffffff021916908373ffffffffffffffffffffffffffffffffffffffff160217905550426002819055506000600160006101000a81548160ff021916908360018111156107d9576107d8610913565b5b0217905550600060018054906101000a900473ffffffffffffffffffffffffffffffffffffffff1673ffffffffffffffffffffffffffffffffffffffff16476040516108249061102a565b60006040518083038185875af1925050503d8060008114610861576040519150601f19603f3d011682016040523d82523d6000602084013e610866565b606091505b50509050806108a1576040517fa1d04b3900000000000000000000000000000000000000000000000000000000815260040160405180910390fd5b7f5b690ec4a06fe979403046eaeea5b3ce38524683c3001f662c8b5a829632f7df826040516108d0919061109e565b60405180910390a15050505050565b6000819050919050565b6108f2816108df565b82525050565b600060208201905061090d60008301846108e9565b92915050565b7f4e487b7100000000000000000000000000000000000000000000000000000000600052602160045260246000fd5b6002811061095357610952610913565b5b50565b600081905061096482610942565b919050565b600061097482610956565b9050919050565b61098481610969565b82525050565b600060208201905061099f600083018461097b565b92915050565b6000604051905090565b600080fd5b600080fd5b6109c2816108df565b81146109cd57600080fd5b50565b6000813590506109df816109b9565b92915050565b600080fd5b6000601f19601f8301169050919050565b7f4e487b7100000000000000000000000000000000000000000000000000000000600052604160045260246000fd5b610a33826109ea565b810181811067ffffffffffffffff82111715610a5257610a516109fb565b5b80604052505050565b6000610a656109a5565b9050610a718282610a2a565b919050565b600067ffffffffffffffff821115610a9157610a906109fb565b5b602082029050602081019050919050565b600080fd5b6000610aba610ab584610a76565b610a5b565b90508083825260208201905060208402830185811115610add57610adc610aa2565b5b835b81811015610b065780610af288826109d0565b845260208401935050602081019050610adf565b5050509392505050565b600082601f830112610b2557610b246109e5565b5b8135610b35848260208601610aa7565b91505092915050565b60008060408385031215610b5557610b546109af565b5b6000610b63858286016109d0565b925050602083013567ffffffffffffffff811115610b8457610b836109b4565b5b610b9085828601610b10565b9150509250929050565b600080fd5b60008083601f840112610bb557610bb46109e5565b5b8235905067ffffffffffffffff811115610bd257610bd1610b9a565b5b602083019150836001820283011115610bee57610bed610aa2565b5b9250929050565b60008060208385031215610c0c57610c0b6109af565b5b600083013567ffffffffffffffff811115610c2a57610c296109b4565b5b610c3685828601610b9f565b92509250509250929050565b600073ffffffffffffffffffffffffffffffffffffffff82169050919050565b6000610c6d82610c42565b9050919050565b610c7d81610c62565b82525050565b6000602082019050610c986000830184610c74565b92915050565b60008115159050919050565b610cb381610c9e565b82525050565b600081519050919050565b600082825260208201905092915050565b60005b83811015610cf3578082015181840152602081019050610cd8565b60008484015250505050565b6000610d0a82610cb9565b610d148185610cc4565b9350610d24818560208601610cd5565b610d2d816109ea565b840191505092915050565b6000604082019050610d4d6000830185610caa565b8181036020830152610d5f8184610cff565b90509392505050565b600060208284031215610d7e57610d7d6109af565b5b6000610d8c848285016109d0565b91505092915050565b6000610da082610c42565b9050919050565b610db081610d95565b82525050565b6000602082019050610dcb6000830184610da7565b92915050565b6000604082019050610de66000830185610c74565b610df36020830184610c74565b9392505050565b6000819050919050565b610e0d81610dfa565b82525050565b600067ffffffffffffffff82169050919050565b610e3081610e13565b82525050565b600061ffff82169050919050565b610e4d81610e36565b82525050565b600063ffffffff82169050919050565b610e6c81610e53565b82525050565b600060a082019050610e876000830188610e04565b610e946020830187610e27565b610ea16040830186610e44565b610eae6060830185610e63565b610ebb6080830184610e63565b9695505050505050565b600081519050610ed4816109b9565b92915050565b600060208284031215610ef057610eef6109af565b5b6000610efe84828501610ec5565b91505092915050565b7f4e487b7100000000000000000000000000000000000000000000000000000000600052601160045260246000fd5b6000610f41826108df565b9150610f4c836108df565b9250828203905081811115610f6457610f63610f07565b5b92915050565b7f4e487b7100000000000000000000000000000000000000000000000000000000600052603260045260246000fd5b7f4e487b7100000000000000000000000000000000000000000000000000000000600052601260045260246000fd5b6000610fd3826108df565b9150610fde836108df565b925082610fee57610fed610f99565b5b828206905092915050565b600081905092915050565b50565b6000611014600083610ff9565b915061101f82611004565b600082019050919050565b600061103582611007565b9150819050919050565b6000819050919050565b600061106461105f61105a84610c42565b61103f565b610c42565b9050919050565b600061107682611049565b9050919050565b60006110888261106b565b9050919050565b6110988161107d565b82525050565b60006020820190506110b3600083018461108f565b9291505056fea264697066735822122091de0504bd8810e610d4fbda9466ebf9b1ba22fb05cb7210f945c7c29411d34e64736f6c63430008130033","opcodes":"PUSH2 0x160 PUSH1 0x40 MSTORE CALLVALUE DUP1 ISZERO PUSH3 0x12 JUMPI PUSH1 0x0 DUP1 REVERT JUMPDEST POP PUSH1 0x40 MLOAD PUSH3 0x1461 CODESIZE SUB DUP1 PUSH3 0x1461 DUP4 CODECOPY DUP2 DUP2 ADD PUSH1 0x40 MSTORE DUP2 ADD SWAP1 PUSH3 0x38 SWAP2 SWAP1 PUSH3 0x266 JUMP JUMPDEST DUP5 DUP1 PUSH20 0xFFFFFFFFFFFFFFFFFFFFFFFFFFFFFFFFFFFFFFFF AND PUSH1 0x80 DUP2 PUSH20 0xFFFFFFFFFFFFFFFFFFFFFFFFFFFFFFFFFFFFFFFF AND DUP2 MSTORE POP POP POP DUP6 PUSH1 0xA0 DUP2 DUP2 MSTORE POP POP DUP5 PUSH20 0xFFFFFFFFFFFFFFFFFFFFFFFFFFFFFFFFFFFFFFFF AND PUSH1 0xC0 DUP2 PUSH20 0xFFFFFFFFFFFFFFFFFFFFFFFFFFFFFFFFFFFFFFFF AND DUP2 MSTORE POP POP DUP4 PUSH8 0xFFFFFFFFFFFFFFFF AND PUSH1 0xE0 DUP2 PUSH8 0xFFFFFFFFFFFFFFFF AND DUP2 MSTORE POP POP DUP3 PUSH2 0x100 DUP2 DUP2 MSTORE POP POP DUP2 PUSH4 0xFFFFFFFF AND PUSH2 0x120 DUP2 PUSH4 0xFFFFFFFF AND DUP2 MSTORE POP POP TIMESTAMP PUSH1 0x2 DUP2 SWAP1 SSTORE POP DUP1 PUSH2 0x140 DUP2 DUP2 MSTORE POP POP POP POP POP POP POP POP PUSH3 0x302 JUMP JUMPDEST PUSH1 0x0 DUP1 REVERT JUMPDEST PUSH1 0x0 DUP2 SWAP1 POP SWAP2 SWAP1 POP JUMP JUMPDEST PUSH3 0x11A DUP2 PUSH3 0x105 JUMP JUMPDEST DUP2 EQ PUSH3 0x126 JUMPI PUSH1 0x0 DUP1 REVERT JUMPDEST POP JUMP JUMPDEST PUSH1 0x0 DUP2 MLOAD SWAP1 POP PUSH3 0x13A DUP2 PUSH3 0x10F JUMP JUMPDEST SWAP3 SWAP2 POP POP JUMP JUMPDEST PUSH1 0x0 PUSH20 0xFFFFFFFFFFFFFFFFFFFFFFFFFFFFFFFFFFFFFFFF DUP3 AND SWAP1 POP SWAP2 SWAP1 POP JUMP JUMPDEST PUSH1 0x0 PUSH3 0x16D DUP3 PUSH3 0x140 JUMP JUMPDEST SWAP1 POP SWAP2 SWAP1 POP JUMP JUMPDEST PUSH3 0x17F DUP2 PUSH3 0x160 JUMP JUMPDEST DUP2 EQ PUSH3 0x18B JUMPI PUSH1 0x0 DUP1 REVERT JUMPDEST POP JUMP JUMPDEST PUSH1 0x0 DUP2 MLOAD SWAP1 POP PUSH3 0x19F DUP2 PUSH3 0x174 JUMP JUMPDEST SWAP3 SWAP2 POP POP JUMP JUMPDEST PUSH1 0x0 PUSH8 0xFFFFFFFFFFFFFFFF DUP3 AND SWAP1 POP SWAP2 SWAP1 POP JUMP JUMPDEST PUSH3 0x1C4 DUP2 PUSH3 0x1A5 JUMP JUMPDEST DUP2 EQ PUSH3 0x1D0 JUMPI PUSH1 0x0 DUP1 REVERT JUMPDEST POP JUMP JUMPDEST PUSH1 0x0 DUP2 MLOAD SWAP1 POP PUSH3 0x1E4 DUP2 PUSH3 0x1B9 JUMP JUMPDEST SWAP3 SWAP2 POP POP JUMP JUMPDEST PUSH1 0x0 DUP2 SWAP1 POP SWAP2 SWAP1 POP JUMP JUMPDEST PUSH3 0x1FF DUP2 PUSH3 0x1EA JUMP JUMPDEST DUP2 EQ PUSH3 0x20B JUMPI PUSH1 0x0 DUP1 REVERT JUMPDEST POP JUMP JUMPDEST PUSH1 0x0 DUP2 MLOAD SWAP1 POP PUSH3 0x21F DUP2 PUSH3 0x1F4 JUMP JUMPDEST SWAP3 SWAP2 POP POP JUMP JUMPDEST PUSH1 0x0 PUSH4 0xFFFFFFFF DUP3 AND SWAP1 POP SWAP2 SWAP1 POP JUMP JUMPDEST PUSH3 0x240 DUP2 PUSH3 0x225 JUMP JUMPDEST DUP2 EQ PUSH3 0x24C JUMPI PUSH1 0x0 DUP1 REVERT JUMPDEST POP JUMP JUMPDEST PUSH1 0x0 DUP2 MLOAD SWAP1 POP PUSH3 0x260 DUP2 PUSH3 0x235 JUMP JUMPDEST SWAP3 SWAP2 POP POP JUMP JUMPDEST PUSH1 0x0 DUP1 PUSH1 0x0 DUP1 PUSH1 0x0 DUP1 PUSH1 0xC0 DUP8 DUP10 SUB SLT ISZERO PUSH3 0x286 JUMPI PUSH3 0x285 PUSH3 0x100 JUMP JUMPDEST JUMPDEST PUSH1 0x0 PUSH3 0x296 DUP10 DUP3 DUP11 ADD PUSH3 0x129 JUMP JUMPDEST SWAP7 POP POP PUSH1 0x20 PUSH3 0x2A9 DUP10 DUP3 DUP11 ADD PUSH3 0x18E JUMP JUMPDEST SWAP6 POP POP PUSH1 0x40 PUSH3 0x2BC DUP10 DUP3 DUP11 ADD PUSH3 0x1D3 JUMP JUMPDEST SWAP5 POP POP PUSH1 0x60 PUSH3 0x2CF DUP10 DUP3 DUP11 ADD PUSH3 0x20E JUMP JUMPDEST SWAP4 POP POP PUSH1 0x80 PUSH3 0x2E2 DUP10 DUP3 DUP11 ADD PUSH3 0x24F JUMP JUMPDEST SWAP3 POP POP PUSH1 0xA0 PUSH3 0x2F5 DUP10 DUP3 DUP11 ADD PUSH3 0x129 JUMP JUMPDEST SWAP2 POP POP SWAP3 SWAP6 POP SWAP3 SWAP6 POP SWAP3 SWAP6 JUMP JUMPDEST PUSH1 0x80 MLOAD PUSH1 0xA0 MLOAD PUSH1 0xC0 MLOAD PUSH1 0xE0 MLOAD PUSH2 0x100 MLOAD PUSH2 0x120 MLOAD PUSH2 0x140 MLOAD PUSH2 0x10EF PUSH3 0x372 PUSH1 0x0 CODECOPY PUSH1 0x0 DUP2 DUP2 PUSH2 0x5F7 ADD MSTORE PUSH2 0x647 ADD MSTORE PUSH1 0x0 PUSH2 0x516 ADD MSTORE PUSH1 0x0 PUSH2 0x4D2 ADD MSTORE PUSH1 0x0 PUSH2 0x4F3 ADD MSTORE PUSH1 0x0 PUSH2 0x496 ADD MSTORE PUSH1 0x0 DUP2 DUP2 PUSH2 0x298 ADD MSTORE PUSH2 0x395 ADD MSTORE PUSH1 0x0 DUP2 DUP2 PUSH2 0x2D5 ADD MSTORE PUSH2 0x329 ADD MSTORE PUSH2 0x10EF PUSH1 0x0 RETURN INVALID PUSH1 0x80 PUSH1 0x40 MSTORE PUSH1 0x4 CALLDATASIZE LT PUSH2 0xA0 JUMPI PUSH1 0x0 CALLDATALOAD PUSH1 0xE0 SHR DUP1 PUSH4 0x473F1DDC GT PUSH2 0x64 JUMPI DUP1 PUSH4 0x473F1DDC EQ PUSH2 0x15B JUMPI DUP1 PUSH4 0x6E04FF0D EQ PUSH2 0x186 JUMPI DUP1 PUSH4 0x91AD27B4 EQ PUSH2 0x1C4 JUMPI DUP1 PUSH4 0xC1C244E8 EQ PUSH2 0x1EF JUMPI DUP1 PUSH4 0xE55AE4E8 EQ PUSH2 0x21A JUMPI DUP1 PUSH4 0xF71D96CB EQ PUSH2 0x257 JUMPI PUSH2 0xA7 JUMP JUMPDEST DUP1 PUSH4 0x9BC33A7 EQ PUSH2 0xA9 JUMPI DUP1 PUSH4 0x115CBAF5 EQ PUSH2 0xD4 JUMPI DUP1 PUSH4 0x1FE543E3 EQ PUSH2 0xFF JUMPI DUP1 PUSH4 0x2CFCC539 EQ PUSH2 0x128 JUMPI DUP1 PUSH4 0x4585E33B EQ PUSH2 0x132 JUMPI PUSH2 0xA7 JUMP JUMPDEST CALLDATASIZE PUSH2 0xA7 JUMPI STOP JUMPDEST STOP JUMPDEST CALLVALUE DUP1 ISZERO PUSH2 0xB5 JUMPI PUSH1 0x0 DUP1 REVERT JUMPDEST POP PUSH2 0xBE PUSH2 0x294 JUMP JUMPDEST PUSH1 0x40 MLOAD PUSH2 0xCB SWAP2 SWAP1 PUSH2 0x8F8 JUMP JUMPDEST PUSH1 0x40 MLOAD DUP1 SWAP2 SUB SWAP1 RETURN JUMPDEST CALLVALUE DUP1 ISZERO PUSH2 0xE0 JUMPI PUSH1 0x0 DUP1 REVERT JUMPDEST POP PUSH2 0xE9 PUSH2 0x2BC JUMP JUMPDEST PUSH1 0x40 MLOAD PUSH2 0xF6 SWAP2 SWAP1 PUSH2 0x98A JUMP JUMPDEST PUSH1 0x40 MLOAD DUP1 SWAP2 SUB SWAP1 RETURN JUMPDEST CALLVALUE DUP1 ISZERO PUSH2 0x10B JUMPI PUSH1 0x0 DUP1 REVERT JUMPDEST POP PUSH2 0x126 PUSH1 0x4 DUP1 CALLDATASIZE SUB DUP2 ADD SWAP1 PUSH2 0x121 SWAP2 SWAP1 PUSH2 0xB3E JUMP JUMPDEST PUSH2 0x2D3 JUMP JUMPDEST STOP JUMPDEST PUSH2 0x130 PUSH2 0x393 JUMP JUMPDEST STOP JUMPDEST CALLVALUE DUP1 ISZERO PUSH2 0x13E JUMPI PUSH1 0x0 DUP1 REVERT JUMPDEST POP PUSH2 0x159 PUSH1 0x4 DUP1 CALLDATASIZE SUB DUP2 ADD SWAP1 PUSH2 0x154 SWAP2 SWAP1 PUSH2 0xBF5 JUMP JUMPDEST PUSH2 0x494 JUMP JUMPDEST STOP JUMPDEST CALLVALUE DUP1 ISZERO PUSH2 0x167 JUMPI PUSH1 0x0 DUP1 REVERT JUMPDEST POP PUSH2 0x170 PUSH2 0x5C9 JUMP JUMPDEST PUSH1 0x40 MLOAD PUSH2 0x17D SWAP2 SWAP1 PUSH2 0xC83 JUMP JUMPDEST PUSH1 0x40 MLOAD DUP1 SWAP2 SUB SWAP1 RETURN JUMPDEST CALLVALUE DUP1 ISZERO PUSH2 0x192 JUMPI PUSH1 0x0 DUP1 REVERT JUMPDEST POP PUSH2 0x1AD PUSH1 0x4 DUP1 CALLDATASIZE SUB DUP2 ADD SWAP1 PUSH2 0x1A8 SWAP2 SWAP1 PUSH2 0xBF5 JUMP JUMPDEST PUSH2 0x5F1 JUMP JUMPDEST PUSH1 0x40 MLOAD PUSH2 0x1BB SWAP3 SWAP2 SWAP1 PUSH2 0xD38 JUMP JUMPDEST PUSH1 0x40 MLOAD DUP1 SWAP2 SUB SWAP1 RETURN JUMPDEST CALLVALUE DUP1 ISZERO PUSH2 0x1D0 JUMPI PUSH1 0x0 DUP1 REVERT JUMPDEST POP PUSH2 0x1D9 PUSH2 0x643 JUMP JUMPDEST PUSH1 0x40 MLOAD PUSH2 0x1E6 SWAP2 SWAP1 PUSH2 0x8F8 JUMP JUMPDEST PUSH1 0x40 MLOAD DUP1 SWAP2 SUB SWAP1 RETURN JUMPDEST CALLVALUE DUP1 ISZERO PUSH2 0x1FB JUMPI PUSH1 0x0 DUP1 REVERT JUMPDEST POP PUSH2 0x204 PUSH2 0x66B JUMP JUMPDEST PUSH1 0x40 MLOAD PUSH2 0x211 SWAP2 SWAP1 PUSH2 0x8F8 JUMP JUMPDEST PUSH1 0x40 MLOAD DUP1 SWAP2 SUB SWAP1 RETURN JUMPDEST CALLVALUE DUP1 ISZERO PUSH2 0x226 JUMPI PUSH1 0x0 DUP1 REVERT JUMPDEST POP PUSH2 0x241 PUSH1 0x4 DUP1 CALLDATASIZE SUB DUP2 ADD SWAP1 PUSH2 0x23C SWAP2 SWAP1 PUSH2 0xD68 JUMP JUMPDEST PUSH2 0x675 JUMP JUMPDEST PUSH1 0x40 MLOAD PUSH2 0x24E SWAP2 SWAP1 PUSH2 0xC83 JUMP JUMPDEST PUSH1 0x40 MLOAD DUP1 SWAP2 SUB SWAP1 RETURN JUMPDEST CALLVALUE DUP1 ISZERO PUSH2 0x263 JUMPI PUSH1 0x0 DUP1 REVERT JUMPDEST POP PUSH2 0x27E PUSH1 0x4 DUP1 CALLDATASIZE SUB DUP2 ADD SWAP1 PUSH2 0x279 SWAP2 SWAP1 PUSH2 0xD68 JUMP JUMPDEST PUSH2 0x6BC JUMP JUMPDEST PUSH1 0x40 MLOAD PUSH2 0x28B SWAP2 SWAP1 PUSH2 0xDB6 JUMP JUMPDEST PUSH1 0x40 MLOAD DUP1 SWAP2 SUB SWAP1 RETURN JUMPDEST PUSH1 0x0 PUSH32 0x0 SWAP1 POP SWAP1 JUMP JUMPDEST PUSH1 0x0 PUSH1 0x1 PUSH1 0x0 SWAP1 SLOAD SWAP1 PUSH2 0x100 EXP SWAP1 DIV PUSH1 0xFF AND SWAP1 POP SWAP1 JUMP JUMPDEST PUSH32 0x0 PUSH20 0xFFFFFFFFFFFFFFFFFFFFFFFFFFFFFFFFFFFFFFFF AND CALLER PUSH20 0xFFFFFFFFFFFFFFFFFFFFFFFFFFFFFFFFFFFFFFFF AND EQ PUSH2 0x385 JUMPI CALLER PUSH32 0x0 PUSH1 0x40 MLOAD PUSH32 0x1CF993F400000000000000000000000000000000000000000000000000000000 DUP2 MSTORE PUSH1 0x4 ADD PUSH2 0x37C SWAP3 SWAP2 SWAP1 PUSH2 0xDD1 JUMP JUMPDEST PUSH1 0x40 MLOAD DUP1 SWAP2 SUB SWAP1 REVERT JUMPDEST PUSH2 0x38F DUP3 DUP3 PUSH2 0x6FB JUMP JUMPDEST POP POP JUMP JUMPDEST PUSH32 0x0 CALLVALUE EQ PUSH2 0x3EC JUMPI PUSH1 0x40 MLOAD PUSH32 0xA10E43C700000000000000000000000000000000000000000000000000000000 DUP2 MSTORE PUSH1 0x4 ADD PUSH1 0x40 MLOAD DUP1 SWAP2 SUB SWAP1 REVERT JUMPDEST PUSH1 0x0 CALLER SWAP1 DUP1 PUSH1 0x1 DUP2 SLOAD ADD DUP1 DUP3 SSTORE DUP1 SWAP2 POP POP PUSH1 0x1 SWAP1 SUB SWAP1 PUSH1 0x0 MSTORE PUSH1 0x20 PUSH1 0x0 KECCAK256 ADD PUSH1 0x0 SWAP1 SWAP2 SWAP1 SWAP2 SWAP1 SWAP2 PUSH2 0x100 EXP DUP2 SLOAD DUP2 PUSH20 0xFFFFFFFFFFFFFFFFFFFFFFFFFFFFFFFFFFFFFFFF MUL NOT AND SWAP1 DUP4 PUSH20 0xFFFFFFFFFFFFFFFFFFFFFFFFFFFFFFFFFFFFFFFF AND MUL OR SWAP1 SSTORE POP CALLER PUSH20 0xFFFFFFFFFFFFFFFFFFFFFFFFFFFFFFFFFFFFFFFF AND PUSH32 0x634F3211E3A4E43FEE5A21AD9F87CA153B300FC78B1C557A2057DBE9C63BCB47 PUSH1 0x40 MLOAD PUSH1 0x40 MLOAD DUP1 SWAP2 SUB SWAP1 LOG2 JUMP JUMPDEST PUSH32 0x0 PUSH20 0xFFFFFFFFFFFFFFFFFFFFFFFFFFFFFFFFFFFFFFFF AND PUSH4 0x5D3B1D30 PUSH32 0x0 PUSH32 0x0 PUSH1 0x3 PUSH32 0x0 PUSH1 0x1 PUSH1 0x40 MLOAD DUP7 PUSH4 0xFFFFFFFF AND PUSH1 0xE0 SHL DUP2 MSTORE PUSH1 0x4 ADD PUSH2 0x557 SWAP6 SWAP5 SWAP4 SWAP3 SWAP2 SWAP1 PUSH2 0xE72 JUMP JUMPDEST PUSH1 0x20 PUSH1 0x40 MLOAD DUP1 DUP4 SUB DUP2 PUSH1 0x0 DUP8 GAS CALL ISZERO DUP1 ISZERO PUSH2 0x576 JUMPI RETURNDATASIZE PUSH1 0x0 DUP1 RETURNDATACOPY RETURNDATASIZE PUSH1 0x0 REVERT JUMPDEST POP POP POP POP PUSH1 0x40 MLOAD RETURNDATASIZE PUSH1 0x1F NOT PUSH1 0x1F DUP3 ADD AND DUP3 ADD DUP1 PUSH1 0x40 MSTORE POP DUP2 ADD SWAP1 PUSH2 0x59A SWAP2 SWAP1 PUSH2 0xEDA JUMP JUMPDEST POP PUSH1 0x1 DUP1 PUSH1 0x0 PUSH2 0x100 EXP DUP2 SLOAD DUP2 PUSH1 0xFF MUL NOT AND SWAP1 DUP4 PUSH1 0x1 DUP2 GT ISZERO PUSH2 0x5C0 JUMPI PUSH2 0x5BF PUSH2 0x913 JUMP JUMPDEST JUMPDEST MUL OR SWAP1 SSTORE POP POP POP JUMP JUMPDEST PUSH1 0x0 PUSH1 0x1 DUP1 SLOAD SWAP1 PUSH2 0x100 EXP SWAP1 DIV PUSH20 0xFFFFFFFFFFFFFFFFFFFFFFFFFFFFFFFFFFFFFFFF AND SWAP1 POP SWAP1 JUMP JUMPDEST PUSH1 0x0 PUSH1 0x60 PUSH32 0x0 PUSH1 0x2 SLOAD TIMESTAMP PUSH2 0x624 SWAP2 SWAP1 PUSH2 0xF36 JUMP JUMPDEST GT SWAP2 POP DUP2 PUSH1 0x40 MLOAD DUP1 PUSH1 0x20 ADD PUSH1 0x40 MSTORE DUP1 PUSH1 0x0 DUP2 MSTORE POP SWAP2 POP SWAP2 POP SWAP3 POP SWAP3 SWAP1 POP JUMP JUMPDEST PUSH1 0x0 PUSH32 0x0 SWAP1 POP SWAP1 JUMP JUMPDEST PUSH1 0x0 PUSH1 0x2 SLOAD SWAP1 POP SWAP1 JUMP JUMPDEST PUSH1 0x0 DUP1 DUP3 DUP2 SLOAD DUP2 LT PUSH2 0x68A JUMPI PUSH2 0x689 PUSH2 0xF6A JUMP JUMPDEST JUMPDEST SWAP1 PUSH1 0x0 MSTORE PUSH1 0x20 PUSH1 0x0 KECCAK256 ADD PUSH1 0x0 SWAP1 SLOAD SWAP1 PUSH2 0x100 EXP SWAP1 DIV PUSH20 0xFFFFFFFFFFFFFFFFFFFFFFFFFFFFFFFFFFFFFFFF AND SWAP1 POP SWAP2 SWAP1 POP JUMP JUMPDEST PUSH1 0x0 DUP2 DUP2 SLOAD DUP2 LT PUSH2 0x6CC JUMPI PUSH1 0x0 DUP1 REVERT JUMPDEST SWAP1 PUSH1 0x0 MSTORE PUSH1 0x20 PUSH1 0x0 KECCAK256 ADD PUSH1 0x0 SWAP2 POP SLOAD SWAP1 PUSH2 0x100 EXP SWAP1 DIV PUSH20 0xFFFFFFFFFFFFFFFFFFFFFFFFFFFFFFFFFFFFFFFF AND DUP2 JUMP JUMPDEST PUSH1 0x0 DUP1 DUP1 SLOAD SWAP1 POP DUP3 PUSH1 0x0 DUP2 MLOAD DUP2 LT PUSH2 0x716 JUMPI PUSH2 0x715 PUSH2 0xF6A JUMP JUMPDEST JUMPDEST PUSH1 0x20 MUL PUSH1 0x20 ADD ADD MLOAD PUSH2 0x728 SWAP2 SWAP1 PUSH2 0xFC8 JUMP JUMPDEST SWAP1 POP PUSH1 0x0 DUP1 DUP3 DUP2 SLOAD DUP2 LT PUSH2 0x73F JUMPI PUSH2 0x73E PUSH2 0xF6A JUMP JUMPDEST JUMPDEST SWAP1 PUSH1 0x0 MSTORE PUSH1 0x20 PUSH1 0x0 KECCAK256 ADD PUSH1 0x0 SWAP1 SLOAD SWAP1 PUSH2 0x100 EXP SWAP1 DIV PUSH20 0xFFFFFFFFFFFFFFFFFFFFFFFFFFFFFFFFFFFFFFFF AND SWAP1 POP DUP1 PUSH1 0x1 DUP1 PUSH2 0x100 EXP DUP2 SLOAD DUP2 PUSH20 0xFFFFFFFFFFFFFFFFFFFFFFFFFFFFFFFFFFFFFFFF MUL NOT AND SWAP1 DUP4 PUSH20 0xFFFFFFFFFFFFFFFFFFFFFFFFFFFFFFFFFFFFFFFF AND MUL OR SWAP1 SSTORE POP TIMESTAMP PUSH1 0x2 DUP2 SWAP1 SSTORE POP PUSH1 0x0 PUSH1 0x1 PUSH1 0x0 PUSH2 0x100 EXP DUP2 SLOAD DUP2 PUSH1 0xFF MUL NOT AND SWAP1 DUP4 PUSH1 0x1 DUP2 GT ISZERO PUSH2 0x7D9 JUMPI PUSH2 0x7D8 PUSH2 0x913 JUMP JUMPDEST JUMPDEST MUL OR SWAP1 SSTORE POP PUSH1 0x0 PUSH1 0x1 DUP1 SLOAD SWAP1 PUSH2 0x100 EXP SWAP1 DIV PUSH20 0xFFFFFFFFFFFFFFFFFFFFFFFFFFFFFFFFFFFFFFFF AND PUSH20 0xFFFFFFFFFFFFFFFFFFFFFFFFFFFFFFFFFFFFFFFF AND SELFBALANCE PUSH1 0x40 MLOAD PUSH2 0x824 SWAP1 PUSH2 0x102A JUMP JUMPDEST PUSH1 0x0 PUSH1 0x40 MLOAD DUP1 DUP4 SUB DUP2 DUP6 DUP8 GAS CALL SWAP3 POP POP POP RETURNDATASIZE DUP1 PUSH1 0x0 DUP2 EQ PUSH2 0x861 JUMPI PUSH1 0x40 MLOAD SWAP2 POP PUSH1 0x1F NOT PUSH1 0x3F RETURNDATASIZE ADD AND DUP3 ADD PUSH1 0x40 MSTORE RETURNDATASIZE DUP3 MSTORE RETURNDATASIZE PUSH1 0x0 PUSH1 0x20 DUP5 ADD RETURNDATACOPY PUSH2 0x866 JUMP JUMPDEST PUSH1 0x60 SWAP2 POP JUMPDEST POP POP SWAP1 POP DUP1 PUSH2 0x8A1 JUMPI PUSH1 0x40 MLOAD PUSH32 0xA1D04B3900000000000000000000000000000000000000000000000000000000 DUP2 MSTORE PUSH1 0x4 ADD PUSH1 0x40 MLOAD DUP1 SWAP2 SUB SWAP1 REVERT JUMPDEST PUSH32 0x5B690EC4A06FE979403046EAEEA5B3CE38524683C3001F662C8B5A829632F7DF DUP3 PUSH1 0x40 MLOAD PUSH2 0x8D0 SWAP2 SWAP1 PUSH2 0x109E JUMP JUMPDEST PUSH1 0x40 MLOAD DUP1 SWAP2 SUB SWAP1 LOG1 POP POP POP POP POP JUMP JUMPDEST PUSH1 0x0 DUP2 SWAP1 POP SWAP2 SWAP1 POP JUMP JUMPDEST PUSH2 0x8F2 DUP2 PUSH2 0x8DF JUMP JUMPDEST DUP3 MSTORE POP POP JUMP JUMPDEST PUSH1 0x0 PUSH1 0x20 DUP3 ADD SWAP1 POP PUSH2 0x90D PUSH1 0x0 DUP4 ADD DUP5 PUSH2 0x8E9 JUMP JUMPDEST SWAP3 SWAP2 POP POP JUMP JUMPDEST PUSH32 0x4E487B7100000000000000000000000000000000000000000000000000000000 PUSH1 0x0 MSTORE PUSH1 0x21 PUSH1 0x4 MSTORE PUSH1 0x24 PUSH1 0x0 REVERT JUMPDEST PUSH1 0x2 DUP2 LT PUSH2 0x953 JUMPI PUSH2 0x952 PUSH2 0x913 JUMP JUMPDEST JUMPDEST POP JUMP JUMPDEST PUSH1 0x0 DUP2 SWAP1 POP PUSH2 0x964 DUP3 PUSH2 0x942 JUMP JUMPDEST SWAP2 SWAP1 POP JUMP JUMPDEST PUSH1 0x0 PUSH2 0x974 DUP3 PUSH2 0x956 JUMP JUMPDEST SWAP1 POP SWAP2 SWAP1 POP JUMP JUMPDEST PUSH2 0x984 DUP2 PUSH2 0x969 JUMP JUMPDEST DUP3 MSTORE POP POP JUMP JUMPDEST PUSH1 0x0 PUSH1 0x20 DUP3 ADD SWAP1 POP PUSH2 0x99F PUSH1 0x0 DUP4 ADD DUP5 PUSH2 0x97B JUMP JUMPDEST SWAP3 SWAP2 POP POP JUMP JUMPDEST PUSH1 0x0 PUSH1 0x40 MLOAD SWAP1 POP SWAP1 JUMP JUMPDEST PUSH1 0x0 DUP1 REVERT JUMPDEST PUSH1 0x0 DUP1 REVERT JUMPDEST PUSH2 0x9C2 DUP2 PUSH2 0x8DF JUMP JUMPDEST DUP2 EQ PUSH2 0x9CD JUMPI PUSH1 0x0 DUP1 REVERT JUMPDEST POP JUMP JUMPDEST PUSH1 0x0 DUP2 CALLDATALOAD SWAP1 POP PUSH2 0x9DF DUP2 PUSH2 0x9B9 JUMP JUMPDEST SWAP3 SWAP2 POP POP JUMP JUMPDEST PUSH1 0x0 DUP1 REVERT JUMPDEST PUSH1 0x0 PUSH1 0x1F NOT PUSH1 0x1F DUP4 ADD AND SWAP1 POP SWAP2 SWAP1 POP JUMP JUMPDEST PUSH32 0x4E487B7100000000000000000000000000000000000000000000000000000000 PUSH1 0x0 MSTORE PUSH1 0x41 PUSH1 0x4 MSTORE PUSH1 0x24 PUSH1 0x0 REVERT JUMPDEST PUSH2 0xA33 DUP3 PUSH2 0x9EA JUMP JUMPDEST DUP2 ADD DUP2 DUP2 LT PUSH8 0xFFFFFFFFFFFFFFFF DUP3 GT OR ISZERO PUSH2 0xA52 JUMPI PUSH2 0xA51 PUSH2 0x9FB JUMP JUMPDEST JUMPDEST DUP1 PUSH1 0x40 MSTORE POP POP POP JUMP JUMPDEST PUSH1 0x0 PUSH2 0xA65 PUSH2 0x9A5 JUMP JUMPDEST SWAP1 POP PUSH2 0xA71 DUP3 DUP3 PUSH2 0xA2A JUMP JUMPDEST SWAP2 SWAP1 POP JUMP JUMPDEST PUSH1 0x0 PUSH8 0xFFFFFFFFFFFFFFFF DUP3 GT ISZERO PUSH2 0xA91 JUMPI PUSH2 0xA90 PUSH2 0x9FB JUMP JUMPDEST JUMPDEST PUSH1 0x20 DUP3 MUL SWAP1 POP PUSH1 0x20 DUP2 ADD SWAP1 POP SWAP2 SWAP1 POP JUMP JUMPDEST PUSH1 0x0 DUP1 REVERT JUMPDEST PUSH1 0x0 PUSH2 0xABA PUSH2 0xAB5 DUP5 PUSH2 0xA76 JUMP JUMPDEST PUSH2 0xA5B JUMP JUMPDEST SWAP1 POP DUP1 DUP4 DUP3 MSTORE PUSH1 0x20 DUP3 ADD SWAP1 POP PUSH1 0x20 DUP5 MUL DUP4 ADD DUP6 DUP2 GT ISZERO PUSH2 0xADD JUMPI PUSH2 0xADC PUSH2 0xAA2 JUMP JUMPDEST JUMPDEST DUP4 JUMPDEST DUP2 DUP2 LT ISZERO PUSH2 0xB06 JUMPI DUP1 PUSH2 0xAF2 DUP9 DUP3 PUSH2 0x9D0 JUMP JUMPDEST DUP5 MSTORE PUSH1 0x20 DUP5 ADD SWAP4 POP POP PUSH1 0x20 DUP2 ADD SWAP1 POP PUSH2 0xADF JUMP JUMPDEST POP POP POP SWAP4 SWAP3 POP POP POP JUMP JUMPDEST PUSH1 0x0 DUP3 PUSH1 0x1F DUP4 ADD SLT PUSH2 0xB25 JUMPI PUSH2 0xB24 PUSH2 0x9E5 JUMP JUMPDEST JUMPDEST DUP2 CALLDATALOAD PUSH2 0xB35 DUP5 DUP3 PUSH1 0x20 DUP7 ADD PUSH2 0xAA7 JUMP JUMPDEST SWAP2 POP POP SWAP3 SWAP2 POP POP JUMP JUMPDEST PUSH1 0x0 DUP1 PUSH1 0x40 DUP4 DUP6 SUB SLT ISZERO PUSH2 0xB55 JUMPI PUSH2 0xB54 PUSH2 0x9AF JUMP JUMPDEST JUMPDEST PUSH1 0x0 PUSH2 0xB63 DUP6 DUP3 DUP7 ADD PUSH2 0x9D0 JUMP JUMPDEST SWAP3 POP POP PUSH1 0x20 DUP4 ADD CALLDATALOAD PUSH8 0xFFFFFFFFFFFFFFFF DUP2 GT ISZERO PUSH2 0xB84 JUMPI PUSH2 0xB83 PUSH2 0x9B4 JUMP JUMPDEST JUMPDEST PUSH2 0xB90 DUP6 DUP3 DUP7 ADD PUSH2 0xB10 JUMP JUMPDEST SWAP2 POP POP SWAP3 POP SWAP3 SWAP1 POP JUMP JUMPDEST PUSH1 0x0 DUP1 REVERT JUMPDEST PUSH1 0x0 DUP1 DUP4 PUSH1 0x1F DUP5 ADD SLT PUSH2 0xBB5 JUMPI PUSH2 0xBB4 PUSH2 0x9E5 JUMP JUMPDEST JUMPDEST DUP3 CALLDATALOAD SWAP1 POP PUSH8 0xFFFFFFFFFFFFFFFF DUP2 GT ISZERO PUSH2 0xBD2 JUMPI PUSH2 0xBD1 PUSH2 0xB9A JUMP JUMPDEST JUMPDEST PUSH1 0x20 DUP4 ADD SWAP2 POP DUP4 PUSH1 0x1 DUP3 MUL DUP4 ADD GT ISZERO PUSH2 0xBEE JUMPI PUSH2 0xBED PUSH2 0xAA2 JUMP JUMPDEST JUMPDEST SWAP3 POP SWAP3 SWAP1 POP JUMP JUMPDEST PUSH1 0x0 DUP1 PUSH1 0x20 DUP4 DUP6 SUB SLT ISZERO PUSH2 0xC0C JUMPI PUSH2 0xC0B PUSH2 0x9AF JUMP JUMPDEST JUMPDEST PUSH1 0x0 DUP4 ADD CALLDATALOAD PUSH8 0xFFFFFFFFFFFFFFFF DUP2 GT ISZERO PUSH2 0xC2A JUMPI PUSH2 0xC29 PUSH2 0x9B4 JUMP JUMPDEST JUMPDEST PUSH2 0xC36 DUP6 DUP3 DUP7 ADD PUSH2 0xB9F JUMP JUMPDEST SWAP3 POP SWAP3 POP POP SWAP3 POP SWAP3 SWAP1 POP JUMP JUMPDEST PUSH1 0x0 PUSH20 0xFFFFFFFFFFFFFFFFFFFFFFFFFFFFFFFFFFFFFFFF DUP3 AND SWAP1 POP SWAP2 SWAP1 POP JUMP JUMPDEST PUSH1 0x0 PUSH2 0xC6D DUP3 PUSH2 0xC42 JUMP JUMPDEST SWAP1 POP SWAP2 SWAP1 POP JUMP JUMPDEST PUSH2 0xC7D DUP2 PUSH2 0xC62 JUMP JUMPDEST DUP3 MSTORE POP POP JUMP JUMPDEST PUSH1 0x0 PUSH1 0x20 DUP3 ADD SWAP1 POP PUSH2 0xC98 PUSH1 0x0 DUP4 ADD DUP5 PUSH2 0xC74 JUMP JUMPDEST SWAP3 SWAP2 POP POP JUMP JUMPDEST PUSH1 0x0 DUP2 ISZERO ISZERO SWAP1 POP SWAP2 SWAP1 POP JUMP JUMPDEST PUSH2 0xCB3 DUP2 PUSH2 0xC9E JUMP JUMPDEST DUP3 MSTORE POP POP JUMP JUMPDEST PUSH1 0x0 DUP2 MLOAD SWAP1 POP SWAP2 SWAP1 POP JUMP JUMPDEST PUSH1 0x0 DUP3 DUP3 MSTORE PUSH1 0x20 DUP3 ADD SWAP1 POP SWAP3 SWAP2 POP POP JUMP JUMPDEST PUSH1 0x0 JUMPDEST DUP4 DUP2 LT ISZERO PUSH2 0xCF3 JUMPI DUP1 DUP3 ADD MLOAD DUP2 DUP5 ADD MSTORE PUSH1 0x20 DUP2 ADD SWAP1 POP PUSH2 0xCD8 JUMP JUMPDEST PUSH1 0x0 DUP5 DUP5 ADD MSTORE POP POP POP POP JUMP JUMPDEST PUSH1 0x0 PUSH2 0xD0A DUP3 PUSH2 0xCB9 JUMP JUMPDEST PUSH2 0xD14 DUP2 DUP6 PUSH2 0xCC4 JUMP JUMPDEST SWAP4 POP PUSH2 0xD24 DUP2 DUP6 PUSH1 0x20 DUP7 ADD PUSH2 0xCD5 JUMP JUMPDEST PUSH2 0xD2D DUP2 PUSH2 0x9EA JUMP JUMPDEST DUP5 ADD SWAP2 POP POP SWAP3 SWAP2 POP POP JUMP JUMPDEST PUSH1 0x0 PUSH1 0x40 DUP3 ADD SWAP1 POP PUSH2 0xD4D PUSH1 0x0 DUP4 ADD DUP6 PUSH2 0xCAA JUMP JUMPDEST DUP2 DUP2 SUB PUSH1 0x20 DUP4 ADD MSTORE PUSH2 0xD5F DUP2 DUP5 PUSH2 0xCFF JUMP JUMPDEST SWAP1 POP SWAP4 SWAP3 POP POP POP JUMP JUMPDEST PUSH1 0x0 PUSH1 0x20 DUP3 DUP5 SUB SLT ISZERO PUSH2 0xD7E JUMPI PUSH2 0xD7D PUSH2 0x9AF JUMP JUMPDEST JUMPDEST PUSH1 0x0 PUSH2 0xD8C DUP5 DUP3 DUP6 ADD PUSH2 0x9D0 JUMP JUMPDEST SWAP2 POP POP SWAP3 SWAP2 POP POP JUMP JUMPDEST PUSH1 0x0 PUSH2 0xDA0 DUP3 PUSH2 0xC42 JUMP JUMPDEST SWAP1 POP SWAP2 SWAP1 POP JUMP JUMPDEST PUSH2 0xDB0 DUP2 PUSH2 0xD95 JUMP JUMPDEST DUP3 MSTORE POP POP JUMP JUMPDEST PUSH1 0x0 PUSH1 0x20 DUP3 ADD SWAP1 POP PUSH2 0xDCB PUSH1 0x0 DUP4 ADD DUP5 PUSH2 0xDA7 JUMP JUMPDEST SWAP3 SWAP2 POP POP JUMP JUMPDEST PUSH1 0x0 PUSH1 0x40 DUP3 ADD SWAP1 POP PUSH2 0xDE6 PUSH1 0x0 DUP4 ADD DUP6 PUSH2 0xC74 JUMP JUMPDEST PUSH2 0xDF3 PUSH1 0x20 DUP4 ADD DUP5 PUSH2 0xC74 JUMP JUMPDEST SWAP4 SWAP3 POP POP POP JUMP JUMPDEST PUSH1 0x0 DUP2 SWAP1 POP SWAP2 SWAP1 POP JUMP JUMPDEST PUSH2 0xE0D DUP2 PUSH2 0xDFA JUMP JUMPDEST DUP3 MSTORE POP POP JUMP JUMPDEST PUSH1 0x0 PUSH8 0xFFFFFFFFFFFFFFFF DUP3 AND SWAP1 POP SWAP2 SWAP1 POP JUMP JUMPDEST PUSH2 0xE30 DUP2 PUSH2 0xE13 JUMP JUMPDEST DUP3 MSTORE POP POP JUMP JUMPDEST PUSH1 0x0 PUSH2 0xFFFF DUP3 AND SWAP1 POP SWAP2 SWAP1 POP JUMP JUMPDEST PUSH2 0xE4D DUP2 PUSH2 0xE36 JUMP JUMPDEST DUP3 MSTORE POP POP JUMP JUMPDEST PUSH1 0x0 PUSH4 0xFFFFFFFF DUP3 AND SWAP1 POP SWAP2 SWAP1 POP JUMP JUMPDEST PUSH2 0xE6C DUP2 PUSH2 0xE53 JUMP JUMPDEST DUP3 MSTORE POP POP JUMP JUMPDEST PUSH1 0x0 PUSH1 0xA0 DUP3 ADD SWAP1 POP PUSH2 0xE87 PUSH1 0x0 DUP4 ADD DUP9 PUSH2 0xE04 JUMP JUMPDEST PUSH2 0xE94 PUSH1 0x20 DUP4 ADD DUP8 PUSH2 0xE27 JUMP JUMPDEST PUSH2 0xEA1 PUSH1 0x40 DUP4 ADD DUP7 PUSH2 0xE44 JUMP JUMPDEST PUSH2 0xEAE PUSH1 0x60 DUP4 ADD DUP6 PUSH2 0xE63 JUMP JUMPDEST PUSH2 0xEBB PUSH1 0x80 DUP4 ADD DUP5 PUSH2 0xE63 JUMP JUMPDEST SWAP7 SWAP6 POP POP POP POP POP POP JUMP JUMPDEST PUSH1 0x0 DUP2 MLOAD SWAP1 POP PUSH2 0xED4 DUP2 PUSH2 0x9B9 JUMP JUMPDEST SWAP3 SWAP2 POP POP JUMP JUMPDEST PUSH1 0x0 PUSH1 0x20 DUP3 DUP5 SUB SLT ISZERO PUSH2 0xEF0 JUMPI PUSH2 0xEEF PUSH2 0x9AF JUMP JUMPDEST JUMPDEST PUSH1 0x0 PUSH2 0xEFE DUP5 DUP3 DUP6 ADD PUSH2 0xEC5 JUMP JUMPDEST SWAP2 POP POP SWAP3 SWAP2 POP POP JUMP JUMPDEST PUSH32 0x4E487B7100000000000000000000000000000000000000000000000000000000 PUSH1 0x0 MSTORE PUSH1 0x11 PUSH1 0x4 MSTORE PUSH1 0x24 PUSH1 0x0 REVERT JUMPDEST PUSH1 0x0 PUSH2 0xF41 DUP3 PUSH2 0x8DF JUMP JUMPDEST SWAP2 POP PUSH2 0xF4C DUP4 PUSH2 0x8DF JUMP JUMPDEST SWAP3 POP DUP3 DUP3 SUB SWAP1 POP DUP2 DUP2 GT ISZERO PUSH2 0xF64 JUMPI PUSH2 0xF63 PUSH2 0xF07 JUMP JUMPDEST JUMPDEST SWAP3 SWAP2 POP POP JUMP JUMPDEST PUSH32 0x4E487B7100000000000000000000000000000000000000000000000000000000 PUSH1 0x0 MSTORE PUSH1 0x32 PUSH1 0x4 MSTORE PUSH1 0x24 PUSH1 0x0 REVERT JUMPDEST PUSH32 0x4E487B7100000000000000000000000000000000000000000000000000000000 PUSH1 0x0 MSTORE PUSH1 0x12 PUSH1 0x4 MSTORE PUSH1 0x24 PUSH1 0x0 REVERT JUMPDEST PUSH1 0x0 PUSH2 0xFD3 DUP3 PUSH2 0x8DF JUMP JUMPDEST SWAP2 POP PUSH2 0xFDE DUP4 PUSH2 0x8DF JUMP JUMPDEST SWAP3 POP DUP3 PUSH2 0xFEE JUMPI PUSH2 0xFED PUSH2 0xF99 JUMP JUMPDEST JUMPDEST DUP3 DUP3 MOD SWAP1 POP SWAP3 SWAP2 POP POP JUMP JUMPDEST PUSH1 0x0 DUP2 SWAP1 POP SWAP3 SWAP2 POP POP JUMP JUMPDEST POP JUMP JUMPDEST PUSH1 0x0 PUSH2 0x1014 PUSH1 0x0 DUP4 PUSH2 0xFF9 JUMP JUMPDEST SWAP2 POP PUSH2 0x101F DUP3 PUSH2 0x1004 JUMP JUMPDEST PUSH1 0x0 DUP3 ADD SWAP1 POP SWAP2 SWAP1 POP JUMP JUMPDEST PUSH1 0x0 PUSH2 0x1035 DUP3 PUSH2 0x1007 JUMP JUMPDEST SWAP2 POP DUP2 SWAP1 POP SWAP2 SWAP1 POP JUMP JUMPDEST PUSH1 0x0 DUP2 SWAP1 POP SWAP2 SWAP1 POP JUMP JUMPDEST PUSH1 0x0 PUSH2 0x1064 PUSH2 0x105F PUSH2 0x105A DUP5 PUSH2 0xC42 JUMP JUMPDEST PUSH2 0x103F JUMP JUMPDEST PUSH2 0xC42 JUMP JUMPDEST SWAP1 POP SWAP2 SWAP1 POP JUMP JUMPDEST PUSH1 0x0 PUSH2 0x1076 DUP3 PUSH2 0x1049 JUMP JUMPDEST SWAP1 POP SWAP2 SWAP1 POP JUMP JUMPDEST PUSH1 0x0 PUSH2 0x1088 DUP3 PUSH2 0x106B JUMP JUMPDEST SWAP1 POP SWAP2 SWAP1 POP JUMP JUMPDEST PUSH2 0x1098 DUP2 PUSH2 0x107D JUMP JUMPDEST DUP3 MSTORE POP POP JUMP JUMPDEST PUSH1 0x0 PUSH1 0x20 DUP3 ADD SWAP1 POP PUSH2 0x10B3 PUSH1 0x0 DUP4 ADD DUP5 PUSH2 0x108F JUMP JUMPDEST SWAP3 SWAP2 POP POP JUMP INVALID LOG2 PUSH5 0x6970667358 0x22 SLT KECCAK256 SWAP2 0xDE SDIV DIV 0xBD DUP9 LT 0xE6 LT 0xD4 0xFB 0xDA SWAP5 PUSH7 0xEBF9B1BA22FB05 0xCB PUSH19 0x10F945C7C29411D34E64736F6C634300081300 CALLER "},"gasEstimates":{"creation":{"codeDepositCost":"867000","executionCost":"infinite","totalCost":"infinite"},"external":{"":"196","checkUpkeep(bytes)":"infinite","enterRaffle()":"infinite","getEntranceFee()":"infinite","getInterval()":"infinite","getLastTimeStamp()":"2503","getPlayer(uint256)":"5055","getRaffleState()":"2591","getRecentWinner()":"2569","performUpkeep(bytes)":"infinite","players(uint256)":"5066","rawFulfillRandomWords(uint256,uint256[])":"infinite"},"internal":{"fulfillRandomWords(uint256,uint256[] memory)":"infinite"}},"methodIdentifiers":{"checkUpkeep(bytes)":"6e04ff0d","enterRaffle()":"2cfcc539","getEntranceFee()":"09bc33a7","getInterval()":"91ad27b4","getLastTimeStamp()":"c1c244e8","getPlayer(uint256)":"e55ae4e8","getRaffleState()":"115cbaf5","getRecentWinner()":"473f1ddc","performUpkeep(bytes)":"4585e33b","players(uint256)":"f71d96cb","rawFulfillRandomWords(uint256,uint256[])":"1fe543e3"}},"storageLayout":{"storage":[{"astId":228,"contract":"contracts/Raffle.sol:Raffle","label":"players","offset":0,"slot":"0","type":"t_array(t_address_payable)dyn_storage"},{"astId":246,"contract":"contracts/Raffle.sol:Raffle","label":"raffleState","offset":0,"slot":"1","type":"t_enum(RaffleState)223"},{"astId":248,"contract":"contracts/Raffle.sol:Raffle","label":"recentWinner","offset":1,"slot":"1","type":"t_address"},{"astId":250,"contract":"contracts/Raffle.sol:Raffle","label":"lastTimeStamp","offset":0,"slot":"2","type":"t_uint256"}],"types":{"t_address":{"encoding":"inplace","label":"address","numberOfBytes":"20"},"t_address_payable":{"encoding":"inplace","label":"address payable","numberOfBytes":"20"},"t_array(t_address_payable)dyn_storage":{"base":"t_address_payable","encoding":"dynamic_array","label":"address payable[]","numberOfBytes":"32"},"t_enum(RaffleState)223":{"encoding":"inplace","label":"enum Raffle.RaffleState","numberOfBytes":"1"},"t_uint256":{"encoding":"inplace","label":"uint256","numberOfBytes":"32"}}},"userdoc":{"kind":"user","methods":{},"version":1}}}}