{
  "address": "0xCf7Ed3AccA5a467e9e704C703E8D87F634fB0Fc9",
  "abi": [
    {
      "inputs": [
        {
          "internalType": "uint256",
          "name": "_entranceFee",
          "type": "uint256"
        },
        {
          "internalType": "address",
          "name": "_VRFCoordinatorAddress",
          "type": "address"
        },
        {
          "internalType": "uint64",
          "name": "_subscriptionId",
          "type": "uint64"
        },
        {
          "internalType": "bytes32",
          "name": "_gasLane",
          "type": "bytes32"
        },
        {
          "internalType": "uint32",
          "name": "_callBackGasLimit",
          "type": "uint32"
        },
        {
          "internalType": "uint256",
          "name": "_interval",
          "type": "uint256"
        }
      ],
      "stateMutability": "nonpayable",
      "type": "constructor"
    },
    {
      "inputs": [
        {
          "internalType": "address",
          "name": "have",
          "type": "address"
        },
        {
          "internalType": "address",
          "name": "want",
          "type": "address"
        }
      ],
      "name": "OnlyCoordinatorCanFulfill",
      "type": "error"
    },
    {
      "inputs": [],
      "name": "Raffle__LotteryNotOpen",
      "type": "error"
    },
    {
      "inputs": [],
      "name": "Raffle__NotEnoughEth",
      "type": "error"
    },
    {
      "inputs": [],
      "name": "Raffle__TransferFailed",
      "type": "error"
    },
    {
      "inputs": [],
      "name": "Raffle__UpKeepNotNeeded",
      "type": "error"
    },
    {
      "anonymous": false,
      "inputs": [
        {
          "indexed": true,
          "internalType": "address",
          "name": "player",
          "type": "address"
        }
      ],
      "name": "RaffleEntered",
      "type": "event"
    },
    {
      "anonymous": false,
      "inputs": [
        {
          "indexed": false,
          "internalType": "address",
          "name": "winner",
          "type": "address"
        }
      ],
      "name": "WinnerPicked",
      "type": "event"
    },
    {
      "stateMutability": "payable",
      "type": "fallback"
    },
    {
      "inputs": [
        {
          "internalType": "bytes",
          "name": "",
          "type": "bytes"
        }
      ],
      "name": "checkUpkeep",
      "outputs": [
        {
          "internalType": "bool",
          "name": "upkeepNeeded",
          "type": "bool"
        },
        {
          "internalType": "bytes",
          "name": "",
          "type": "bytes"
        }
      ],
      "stateMutability": "view",
      "type": "function"
    },
    {
      "inputs": [],
      "name": "enterRaffle",
      "outputs": [],
      "stateMutability": "payable",
      "type": "function"
    },
    {
      "inputs": [],
      "name": "getEntranceFee",
      "outputs": [
        {
          "internalType": "uint256",
          "name": "",
          "type": "uint256"
        }
      ],
      "stateMutability": "view",
      "type": "function"
    },
    {
      "inputs": [],
      "name": "getInterval",
      "outputs": [
        {
          "internalType": "uint256",
          "name": "",
          "type": "uint256"
        }
      ],
      "stateMutability": "view",
      "type": "function"
    },
    {
      "inputs": [],
      "name": "getLastTimeStamp",
      "outputs": [
        {
          "internalType": "uint256",
          "name": "",
          "type": "uint256"
        }
      ],
      "stateMutability": "view",
      "type": "function"
    },
    {
      "inputs": [],
      "name": "getNumberOfPlayers",
      "outputs": [
        {
          "internalType": "uint256",
          "name": "",
          "type": "uint256"
        }
      ],
      "stateMutability": "view",
      "type": "function"
    },
    {
      "inputs": [
        {
          "internalType": "uint256",
          "name": "index",
          "type": "uint256"
        }
      ],
      "name": "getPlayer",
      "outputs": [
        {
          "internalType": "address",
          "name": "",
          "type": "address"
        }
      ],
      "stateMutability": "view",
      "type": "function"
    },
    {
      "inputs": [],
      "name": "getRaffleState",
      "outputs": [
        {
          "internalType": "enum Raffle.RaffleState",
          "name": "",
          "type": "uint8"
        }
      ],
      "stateMutability": "view",
      "type": "function"
    },
    {
      "inputs": [],
      "name": "getRecentWinner",
      "outputs": [
        {
          "internalType": "address",
          "name": "",
          "type": "address"
        }
      ],
      "stateMutability": "view",
      "type": "function"
    },
    {
      "inputs": [
        {
          "internalType": "bytes",
          "name": "",
          "type": "bytes"
        }
      ],
      "name": "performUpkeep",
      "outputs": [],
      "stateMutability": "nonpayable",
      "type": "function"
    },
    {
      "inputs": [
        {
          "internalType": "uint256",
          "name": "",
          "type": "uint256"
        }
      ],
      "name": "players",
      "outputs": [
        {
          "internalType": "address payable",
          "name": "",
          "type": "address"
        }
      ],
      "stateMutability": "view",
      "type": "function"
    },
    {
      "inputs": [
        {
          "internalType": "uint256",
          "name": "requestId",
          "type": "uint256"
        },
        {
          "internalType": "uint256[]",
          "name": "randomWords",
          "type": "uint256[]"
        }
      ],
      "name": "rawFulfillRandomWords",
      "outputs": [],
      "stateMutability": "nonpayable",
      "type": "function"
    },
    {
      "stateMutability": "payable",
      "type": "receive"
    }
  ],
  "transactionHash": "0xa7e2fdc1a0c063ae54ec14107e2ea1c876006fb3bd9b8caab497c4f774eb5028",
  "args": [
    "100000000000000000",
    "0x5FbDB2315678afecb367f032d93F642f64180aa3",
    "1",
    "0xd89b2bf150e3b9e13446986e571fb9cab24b13cea0a43ea20a6049a85cc807cc",
    500000,
    "30"
  ],
  "numDeployments": 1,
  "solcInputHash": "c0c1a2eb191ba7c202b8893db3228f3e",
  "bytecode": "0x6101606040523480156200001257600080fd5b50604051620016d2380380620016d2833981810160405281019062000038919062000266565b848073ffffffffffffffffffffffffffffffffffffffff1660808173ffffffffffffffffffffffffffffffffffffffff1681525050508560a081815250508473ffffffffffffffffffffffffffffffffffffffff1660c08173ffffffffffffffffffffffffffffffffffffffff16815250508367ffffffffffffffff1660e08167ffffffffffffffff16815250508261010081815250508163ffffffff166101208163ffffffff16815250504260028190555080610140818152505050505050505062000302565b600080fd5b6000819050919050565b6200011a8162000105565b81146200012657600080fd5b50565b6000815190506200013a816200010f565b92915050565b600073ffffffffffffffffffffffffffffffffffffffff82169050919050565b60006200016d8262000140565b9050919050565b6200017f8162000160565b81146200018b57600080fd5b50565b6000815190506200019f8162000174565b92915050565b600067ffffffffffffffff82169050919050565b620001c481620001a5565b8114620001d057600080fd5b50565b600081519050620001e481620001b9565b92915050565b6000819050919050565b620001ff81620001ea565b81146200020b57600080fd5b50565b6000815190506200021f81620001f4565b92915050565b600063ffffffff82169050919050565b620002408162000225565b81146200024c57600080fd5b50565b600081519050620002608162000235565b92915050565b60008060008060008060c0878903121562000286576200028562000100565b5b60006200029689828a0162000129565b9650506020620002a989828a016200018e565b9550506040620002bc89828a01620001d3565b9450506060620002cf89828a016200020e565b9350506080620002e289828a016200024f565b92505060a0620002f589828a0162000129565b9150509295509295509295565b60805160a05160c05160e051610100516101205161014051611360620003726000396000818161072b01526107ae0152600061060d015260006105c9015260006105ea0152600061058d0152600081816102ce01526103cb01526000818161030b015261035f01526113606000f3fe6080604052600436106100ab5760003560e01c80636e04ff0d116100645780636e04ff0d1461019157806391ad27b4146101cf578063c1c244e8146101fa578063e55ae4e814610225578063f71d96cb14610262578063fd6673f51461029f576100b2565b806309bc33a7146100b4578063115cbaf5146100df5780631fe543e31461010a5780632cfcc539146101335780634585e33b1461013d578063473f1ddc14610166576100b2565b366100b257005b005b3480156100c057600080fd5b506100c96102ca565b6040516100d69190610a6b565b60405180910390f35b3480156100eb57600080fd5b506100f46102f2565b6040516101019190610afd565b60405180910390f35b34801561011657600080fd5b50610131600480360381019061012c9190610cb1565b610309565b005b61013b6103c9565b005b34801561014957600080fd5b50610164600480360381019061015f9190610d68565b610537565b005b34801561017257600080fd5b5061017b6106c1565b6040516101889190610df6565b60405180910390f35b34801561019d57600080fd5b506101b860048036038101906101b39190610ec6565b6106e9565b6040516101c6929190610fa9565b60405180910390f35b3480156101db57600080fd5b506101e46107aa565b6040516101f19190610a6b565b60405180910390f35b34801561020657600080fd5b5061020f6107d2565b60405161021c9190610a6b565b60405180910390f35b34801561023157600080fd5b5061024c60048036038101906102479190610fd9565b6107dc565b6040516102599190610df6565b60405180910390f35b34801561026e57600080fd5b5061028960048036038101906102849190610fd9565b610823565b6040516102969190611027565b60405180910390f35b3480156102ab57600080fd5b506102b4610862565b6040516102c19190610a6b565b60405180910390f35b60007f0000000000000000000000000000000000000000000000000000000000000000905090565b6000600160009054906101000a900460ff16905090565b7f000000000000000000000000000000000000000000000000000000000000000073ffffffffffffffffffffffffffffffffffffffff163373ffffffffffffffffffffffffffffffffffffffff16146103bb57337f00000000000000000000000000000000000000000000000000000000000000006040517f1cf993f40000000000000000000000000000000000000000000000000000000081526004016103b2929190611042565b60405180910390fd5b6103c5828261086e565b5050565b7f00000000000000000000000000000000000000000000000000000000000000003414610422576040517fa10e43c700000000000000000000000000000000000000000000000000000000815260040160405180910390fd5b6000600181111561043657610435610a86565b5b600160009054906101000a900460ff16600181111561045857610457610a86565b5b1461048f576040517f9a54bc8300000000000000000000000000000000000000000000000000000000815260040160405180910390fd5b6000339080600181540180825580915050600190039060005260206000200160009091909190916101000a81548173ffffffffffffffffffffffffffffffffffffffff021916908373ffffffffffffffffffffffffffffffffffffffff1602179055503373ffffffffffffffffffffffffffffffffffffffff167f634f3211e3a4e43fee5a21ad9f87ca153b300fc78b1c557a2057dbe9c63bcb4760405160405180910390a2565b6000610551604051806020016040528060008152506106e9565b5090508061058b576040517faedc535500000000000000000000000000000000000000000000000000000000815260040160405180910390fd5b7f000000000000000000000000000000000000000000000000000000000000000073ffffffffffffffffffffffffffffffffffffffff16635d3b1d307f00000000000000000000000000000000000000000000000000000000000000007f000000000000000000000000000000000000000000000000000000000000000060037f000000000000000000000000000000000000000000000000000000000000000060016040518663ffffffff1660e01b815260040161064e9594939291906110e3565b6020604051808303816000875af115801561066d573d6000803e3d6000fd5b505050506040513d601f19601f82011682018060405250810190610691919061114b565b5060018060006101000a81548160ff021916908360018111156106b7576106b6610a86565b5b0217905550505050565b600060018054906101000a900473ffffffffffffffffffffffffffffffffffffffff16905090565b60006060600080600181111561070257610701610a86565b5b600160009054906101000a900460ff16600181111561072457610723610a86565b5b14905060007f00000000000000000000000000000000000000000000000000000000000000006002544261075891906111a7565b119050600080600080549050119050600080471190508380156107785750825b80156107815750815b801561078a5750805b955085604051806020016040528060008152509550955050505050915091565b60007f0000000000000000000000000000000000000000000000000000000000000000905090565b6000600254905090565b60008082815481106107f1576107f06111db565b5b9060005260206000200160009054906101000a900473ffffffffffffffffffffffffffffffffffffffff169050919050565b6000818154811061083357600080fd5b906000526020600020016000915054906101000a900473ffffffffffffffffffffffffffffffffffffffff1681565b60008080549050905090565b6000808054905082600081518110610889576108886111db565b5b602002602001015161089b9190611239565b905060008082815481106108b2576108b16111db565b5b9060005260206000200160009054906101000a900473ffffffffffffffffffffffffffffffffffffffff169050806001806101000a81548173ffffffffffffffffffffffffffffffffffffffff021916908373ffffffffffffffffffffffffffffffffffffffff160217905550426002819055506000600160006101000a81548160ff0219169083600181111561094c5761094b610a86565b5b0217905550600060018054906101000a900473ffffffffffffffffffffffffffffffffffffffff1673ffffffffffffffffffffffffffffffffffffffff16476040516109979061129b565b60006040518083038185875af1925050503d80600081146109d4576040519150601f19603f3d011682016040523d82523d6000602084013e6109d9565b606091505b5050905080610a14576040517fa1d04b3900000000000000000000000000000000000000000000000000000000815260040160405180910390fd5b7f5b690ec4a06fe979403046eaeea5b3ce38524683c3001f662c8b5a829632f7df82604051610a43919061130f565b60405180910390a15050505050565b6000819050919050565b610a6581610a52565b82525050565b6000602082019050610a806000830184610a5c565b92915050565b7f4e487b7100000000000000000000000000000000000000000000000000000000600052602160045260246000fd5b60028110610ac657610ac5610a86565b5b50565b6000819050610ad782610ab5565b919050565b6000610ae782610ac9565b9050919050565b610af781610adc565b82525050565b6000602082019050610b126000830184610aee565b92915050565b6000604051905090565b600080fd5b600080fd5b610b3581610a52565b8114610b4057600080fd5b50565b600081359050610b5281610b2c565b92915050565b600080fd5b6000601f19601f8301169050919050565b7f4e487b7100000000000000000000000000000000000000000000000000000000600052604160045260246000fd5b610ba682610b5d565b810181811067ffffffffffffffff82111715610bc557610bc4610b6e565b5b80604052505050565b6000610bd8610b18565b9050610be48282610b9d565b919050565b600067ffffffffffffffff821115610c0457610c03610b6e565b5b602082029050602081019050919050565b600080fd5b6000610c2d610c2884610be9565b610bce565b90508083825260208201905060208402830185811115610c5057610c4f610c15565b5b835b81811015610c795780610c658882610b43565b845260208401935050602081019050610c52565b5050509392505050565b600082601f830112610c9857610c97610b58565b5b8135610ca8848260208601610c1a565b91505092915050565b60008060408385031215610cc857610cc7610b22565b5b6000610cd685828601610b43565b925050602083013567ffffffffffffffff811115610cf757610cf6610b27565b5b610d0385828601610c83565b9150509250929050565b600080fd5b60008083601f840112610d2857610d27610b58565b5b8235905067ffffffffffffffff811115610d4557610d44610d0d565b5b602083019150836001820283011115610d6157610d60610c15565b5b9250929050565b60008060208385031215610d7f57610d7e610b22565b5b600083013567ffffffffffffffff811115610d9d57610d9c610b27565b5b610da985828601610d12565b92509250509250929050565b600073ffffffffffffffffffffffffffffffffffffffff82169050919050565b6000610de082610db5565b9050919050565b610df081610dd5565b82525050565b6000602082019050610e0b6000830184610de7565b92915050565b600080fd5b600067ffffffffffffffff821115610e3157610e30610b6e565b5b610e3a82610b5d565b9050602081019050919050565b82818337600083830152505050565b6000610e69610e6484610e16565b610bce565b905082815260208101848484011115610e8557610e84610e11565b5b610e90848285610e47565b509392505050565b600082601f830112610ead57610eac610b58565b5b8135610ebd848260208601610e56565b91505092915050565b600060208284031215610edc57610edb610b22565b5b600082013567ffffffffffffffff811115610efa57610ef9610b27565b5b610f0684828501610e98565b91505092915050565b60008115159050919050565b610f2481610f0f565b82525050565b600081519050919050565b600082825260208201905092915050565b60005b83811015610f64578082015181840152602081019050610f49565b60008484015250505050565b6000610f7b82610f2a565b610f858185610f35565b9350610f95818560208601610f46565b610f9e81610b5d565b840191505092915050565b6000604082019050610fbe6000830185610f1b565b8181036020830152610fd08184610f70565b90509392505050565b600060208284031215610fef57610fee610b22565b5b6000610ffd84828501610b43565b91505092915050565b600061101182610db5565b9050919050565b61102181611006565b82525050565b600060208201905061103c6000830184611018565b92915050565b60006040820190506110576000830185610de7565b6110646020830184610de7565b9392505050565b6000819050919050565b61107e8161106b565b82525050565b600067ffffffffffffffff82169050919050565b6110a181611084565b82525050565b600061ffff82169050919050565b6110be816110a7565b82525050565b600063ffffffff82169050919050565b6110dd816110c4565b82525050565b600060a0820190506110f86000830188611075565b6111056020830187611098565b61111260408301866110b5565b61111f60608301856110d4565b61112c60808301846110d4565b9695505050505050565b60008151905061114581610b2c565b92915050565b60006020828403121561116157611160610b22565b5b600061116f84828501611136565b91505092915050565b7f4e487b7100000000000000000000000000000000000000000000000000000000600052601160045260246000fd5b60006111b282610a52565b91506111bd83610a52565b92508282039050818111156111d5576111d4611178565b5b92915050565b7f4e487b7100000000000000000000000000000000000000000000000000000000600052603260045260246000fd5b7f4e487b7100000000000000000000000000000000000000000000000000000000600052601260045260246000fd5b600061124482610a52565b915061124f83610a52565b92508261125f5761125e61120a565b5b828206905092915050565b600081905092915050565b50565b600061128560008361126a565b915061129082611275565b600082019050919050565b60006112a682611278565b9150819050919050565b6000819050919050565b60006112d56112d06112cb84610db5565b6112b0565b610db5565b9050919050565b60006112e7826112ba565b9050919050565b60006112f9826112dc565b9050919050565b611309816112ee565b82525050565b60006020820190506113246000830184611300565b9291505056fea26469706673582212207469d581b0899c0fe681b980a1e6a9c925600adaca537791dc50d9d7de77e3af64736f6c63430008130033",
  "devdoc": {
    "kind": "dev",
    "methods": {},
    "version": 1
  },
  "userdoc": {
    "kind": "user",
    "methods": {},
    "version": 1
  },
  "storageLayout": {
    "storage": [
      {
        "astId": 228,
        "contract": "contracts/Raffle.sol:Raffle",
        "label": "players",
        "offset": 0,
        "slot": "0",
        "type": "t_array(t_address_payable)dyn_storage"
      },
      {
        "astId": 246,
        "contract": "contracts/Raffle.sol:Raffle",
        "label": "raffleState",
        "offset": 0,
        "slot": "1",
        "type": "t_enum(RaffleState)223"
      },
      {
        "astId": 248,
        "contract": "contracts/Raffle.sol:Raffle",
        "label": "recentWinner",
        "offset": 1,
        "slot": "1",
        "type": "t_address"
      },
      {
        "astId": 250,
        "contract": "contracts/Raffle.sol:Raffle",
        "label": "lastTimeStamp",
        "offset": 0,
        "slot": "2",
        "type": "t_uint256"
      }
    ],
    "types": {
      "t_address": {
        "encoding": "inplace",
        "label": "address",
        "numberOfBytes": "20"
      },
      "t_address_payable": {
        "encoding": "inplace",
        "label": "address payable",
        "numberOfBytes": "20"
      },
      "t_array(t_address_payable)dyn_storage": {
        "base": "t_address_payable",
        "encoding": "dynamic_array",
        "label": "address payable[]",
        "numberOfBytes": "32"
      },
      "t_enum(RaffleState)223": {
        "encoding": "inplace",
        "label": "enum Raffle.RaffleState",
        "numberOfBytes": "1"
      },
      "t_uint256": {
        "encoding": "inplace",
        "label": "uint256",
        "numberOfBytes": "32"
      }
    }
  }
}