{
  "_format": "hh-sol-artifact-1",
  "contractName": "Raffle",
  "sourceName": "contracts/Raffle.sol",
  "abi": [
    {
      "inputs": [
        {
          "internalType": "uint256",
          "name": "_entranceFee",
          "type": "uint256"
        },
        {
          "internalType": "address",
          "name": "_VRFCoordinatorAddress",
          "type": "address"
        },
        {
          "internalType": "uint64",
          "name": "_subscriptionId",
          "type": "uint64"
        },
        {
          "internalType": "bytes32",
          "name": "_gasLane",
          "type": "bytes32"
        },
        {
          "internalType": "uint32",
          "name": "_callBackGasLimit",
          "type": "uint32"
        },
        {
          "internalType": "uint256",
          "name": "_interval",
          "type": "uint256"
        }
      ],
      "stateMutability": "nonpayable",
      "type": "constructor"
    },
    {
      "inputs": [
        {
          "internalType": "address",
          "name": "have",
          "type": "address"
        },
        {
          "internalType": "address",
          "name": "want",
          "type": "address"
        }
      ],
      "name": "OnlyCoordinatorCanFulfill",
      "type": "error"
    },
    {
      "inputs": [],
      "name": "Raffle__NotEnoughEth",
      "type": "error"
    },
    {
      "inputs": [],
      "name": "Raffle__TransferFailed",
      "type": "error"
    },
    {
      "inputs": [],
      "name": "Raffle__UpKeepNotNeeded",
      "type": "error"
    },
    {
      "anonymous": false,
      "inputs": [
        {
          "indexed": true,
          "internalType": "address",
          "name": "player",
          "type": "address"
        }
      ],
      "name": "RaffleEntered",
      "type": "event"
    },
    {
      "anonymous": false,
      "inputs": [
        {
          "indexed": false,
          "internalType": "address",
          "name": "winner",
          "type": "address"
        }
      ],
      "name": "WinnerPicked",
      "type": "event"
    },
    {
      "stateMutability": "payable",
      "type": "fallback"
    },
    {
      "inputs": [
        {
          "internalType": "bytes",
          "name": "",
          "type": "bytes"
        }
      ],
      "name": "checkUpkeep",
      "outputs": [
        {
          "internalType": "bool",
          "name": "upkeepNeeded",
          "type": "bool"
        },
        {
          "internalType": "bytes",
          "name": "",
          "type": "bytes"
        }
      ],
      "stateMutability": "view",
      "type": "function"
    },
    {
      "inputs": [],
      "name": "enterRaffle",
      "outputs": [],
      "stateMutability": "payable",
      "type": "function"
    },
    {
      "inputs": [],
      "name": "getEntranceFee",
      "outputs": [
        {
          "internalType": "uint256",
          "name": "",
          "type": "uint256"
        }
      ],
      "stateMutability": "view",
      "type": "function"
    },
    {
      "inputs": [],
      "name": "getInterval",
      "outputs": [
        {
          "internalType": "uint256",
          "name": "",
          "type": "uint256"
        }
      ],
      "stateMutability": "view",
      "type": "function"
    },
    {
      "inputs": [],
      "name": "getLastTimeStamp",
      "outputs": [
        {
          "internalType": "uint256",
          "name": "",
          "type": "uint256"
        }
      ],
      "stateMutability": "view",
      "type": "function"
    },
    {
      "inputs": [
        {
          "internalType": "uint256",
          "name": "index",
          "type": "uint256"
        }
      ],
      "name": "getPlayer",
      "outputs": [
        {
          "internalType": "address",
          "name": "",
          "type": "address"
        }
      ],
      "stateMutability": "view",
      "type": "function"
    },
    {
      "inputs": [],
      "name": "getRaffleState",
      "outputs": [
        {
          "internalType": "enum Raffle.RaffleState",
          "name": "",
          "type": "uint8"
        }
      ],
      "stateMutability": "view",
      "type": "function"
    },
    {
      "inputs": [],
      "name": "getRecentWinner",
      "outputs": [
        {
          "internalType": "address",
          "name": "",
          "type": "address"
        }
      ],
      "stateMutability": "view",
      "type": "function"
    },
    {
      "inputs": [
        {
          "internalType": "bytes",
          "name": "",
          "type": "bytes"
        }
      ],
      "name": "performUpkeep",
      "outputs": [],
      "stateMutability": "nonpayable",
      "type": "function"
    },
    {
      "inputs": [
        {
          "internalType": "uint256",
          "name": "",
          "type": "uint256"
        }
      ],
      "name": "players",
      "outputs": [
        {
          "internalType": "address payable",
          "name": "",
          "type": "address"
        }
      ],
      "stateMutability": "view",
      "type": "function"
    },
    {
      "inputs": [
        {
          "internalType": "uint256",
          "name": "requestId",
          "type": "uint256"
        },
        {
          "internalType": "uint256[]",
          "name": "randomWords",
          "type": "uint256[]"
        }
      ],
      "name": "rawFulfillRandomWords",
      "outputs": [],
      "stateMutability": "nonpayable",
      "type": "function"
    },
    {
      "stateMutability": "payable",
      "type": "receive"
    }
  ],
  "bytecode": "0x6101606040523480156200001257600080fd5b506040516200162338038062001623833981810160405281019062000038919062000266565b848073ffffffffffffffffffffffffffffffffffffffff1660808173ffffffffffffffffffffffffffffffffffffffff1681525050508560a081815250508473ffffffffffffffffffffffffffffffffffffffff1660c08173ffffffffffffffffffffffffffffffffffffffff16815250508367ffffffffffffffff1660e08167ffffffffffffffff16815250508261010081815250508163ffffffff166101208163ffffffff16815250504260028190555080610140818152505050505050505062000302565b600080fd5b6000819050919050565b6200011a8162000105565b81146200012657600080fd5b50565b6000815190506200013a816200010f565b92915050565b600073ffffffffffffffffffffffffffffffffffffffff82169050919050565b60006200016d8262000140565b9050919050565b6200017f8162000160565b81146200018b57600080fd5b50565b6000815190506200019f8162000174565b92915050565b600067ffffffffffffffff82169050919050565b620001c481620001a5565b8114620001d057600080fd5b50565b600081519050620001e481620001b9565b92915050565b6000819050919050565b620001ff81620001ea565b81146200020b57600080fd5b50565b6000815190506200021f81620001f4565b92915050565b600063ffffffff82169050919050565b620002408162000225565b81146200024c57600080fd5b50565b600081519050620002608162000235565b92915050565b60008060008060008060c0878903121562000286576200028562000100565b5b60006200029689828a0162000129565b9650506020620002a989828a016200018e565b9550506040620002bc89828a01620001d3565b9450506060620002cf89828a016200020e565b9350506080620002e289828a016200024f565b92505060a0620002f589828a0162000129565b9150509295509295509295565b60805160a05160c05160e0516101005161012051610140516112b16200037260003960008181610688015261070b0152600061056a0152600061052601526000610547015260006104ea01526000818161029801526103950152600081816102d5015261032901526112b16000f3fe6080604052600436106100a05760003560e01c8063473f1ddc11610064578063473f1ddc1461015b5780636e04ff0d1461018657806391ad27b4146101c4578063c1c244e8146101ef578063e55ae4e81461021a578063f71d96cb14610257576100a7565b806309bc33a7146100a9578063115cbaf5146100d45780631fe543e3146100ff5780632cfcc539146101285780634585e33b14610132576100a7565b366100a757005b005b3480156100b557600080fd5b506100be610294565b6040516100cb91906109bc565b60405180910390f35b3480156100e057600080fd5b506100e96102bc565b6040516100f69190610a4e565b60405180910390f35b34801561010b57600080fd5b5061012660048036038101906101219190610c02565b6102d3565b005b610130610393565b005b34801561013e57600080fd5b5061015960048036038101906101549190610cb9565b610494565b005b34801561016757600080fd5b5061017061061e565b60405161017d9190610d47565b60405180910390f35b34801561019257600080fd5b506101ad60048036038101906101a89190610e17565b610646565b6040516101bb929190610efa565b60405180910390f35b3480156101d057600080fd5b506101d9610707565b6040516101e691906109bc565b60405180910390f35b3480156101fb57600080fd5b5061020461072f565b60405161021191906109bc565b60405180910390f35b34801561022657600080fd5b50610241600480360381019061023c9190610f2a565b610739565b60405161024e9190610d47565b60405180910390f35b34801561026357600080fd5b5061027e60048036038101906102799190610f2a565b610780565b60405161028b9190610f78565b60405180910390f35b60007f0000000000000000000000000000000000000000000000000000000000000000905090565b6000600160009054906101000a900460ff16905090565b7f000000000000000000000000000000000000000000000000000000000000000073ffffffffffffffffffffffffffffffffffffffff163373ffffffffffffffffffffffffffffffffffffffff161461038557337f00000000000000000000000000000000000000000000000000000000000000006040517f1cf993f400000000000000000000000000000000000000000000000000000000815260040161037c929190610f93565b60405180910390fd5b61038f82826107bf565b5050565b7f000000000000000000000000000000000000000000000000000000000000000034146103ec576040517fa10e43c700000000000000000000000000000000000000000000000000000000815260040160405180910390fd5b6000339080600181540180825580915050600190039060005260206000200160009091909190916101000a81548173ffffffffffffffffffffffffffffffffffffffff021916908373ffffffffffffffffffffffffffffffffffffffff1602179055503373ffffffffffffffffffffffffffffffffffffffff167f634f3211e3a4e43fee5a21ad9f87ca153b300fc78b1c557a2057dbe9c63bcb4760405160405180910390a2565b60006104ae60405180602001604052806000815250610646565b509050806104e8576040517faedc535500000000000000000000000000000000000000000000000000000000815260040160405180910390fd5b7f000000000000000000000000000000000000000000000000000000000000000073ffffffffffffffffffffffffffffffffffffffff16635d3b1d307f00000000000000000000000000000000000000000000000000000000000000007f000000000000000000000000000000000000000000000000000000000000000060037f000000000000000000000000000000000000000000000000000000000000000060016040518663ffffffff1660e01b81526004016105ab959493929190611034565b6020604051808303816000875af11580156105ca573d6000803e3d6000fd5b505050506040513d601f19601f820116820180604052508101906105ee919061109c565b5060018060006101000a81548160ff02191690836001811115610614576106136109d7565b5b0217905550505050565b600060018054906101000a900473ffffffffffffffffffffffffffffffffffffffff16905090565b60006060600080600181111561065f5761065e6109d7565b5b600160009054906101000a900460ff166001811115610681576106806109d7565b5b14905060007f0000000000000000000000000000000000000000000000000000000000000000600254426106b591906110f8565b119050600080600080549050119050600080471190508380156106d55750825b80156106de5750815b80156106e75750805b955085604051806020016040528060008152509550955050505050915091565b60007f0000000000000000000000000000000000000000000000000000000000000000905090565b6000600254905090565b600080828154811061074e5761074d61112c565b5b9060005260206000200160009054906101000a900473ffffffffffffffffffffffffffffffffffffffff169050919050565b6000818154811061079057600080fd5b906000526020600020016000915054906101000a900473ffffffffffffffffffffffffffffffffffffffff1681565b60008080549050826000815181106107da576107d961112c565b5b60200260200101516107ec919061118a565b905060008082815481106108035761080261112c565b5b9060005260206000200160009054906101000a900473ffffffffffffffffffffffffffffffffffffffff169050806001806101000a81548173ffffffffffffffffffffffffffffffffffffffff021916908373ffffffffffffffffffffffffffffffffffffffff160217905550426002819055506000600160006101000a81548160ff0219169083600181111561089d5761089c6109d7565b5b0217905550600060018054906101000a900473ffffffffffffffffffffffffffffffffffffffff1673ffffffffffffffffffffffffffffffffffffffff16476040516108e8906111ec565b60006040518083038185875af1925050503d8060008114610925576040519150601f19603f3d011682016040523d82523d6000602084013e61092a565b606091505b5050905080610965576040517fa1d04b3900000000000000000000000000000000000000000000000000000000815260040160405180910390fd5b7f5b690ec4a06fe979403046eaeea5b3ce38524683c3001f662c8b5a829632f7df826040516109949190611260565b60405180910390a15050505050565b6000819050919050565b6109b6816109a3565b82525050565b60006020820190506109d160008301846109ad565b92915050565b7f4e487b7100000000000000000000000000000000000000000000000000000000600052602160045260246000fd5b60028110610a1757610a166109d7565b5b50565b6000819050610a2882610a06565b919050565b6000610a3882610a1a565b9050919050565b610a4881610a2d565b82525050565b6000602082019050610a636000830184610a3f565b92915050565b6000604051905090565b600080fd5b600080fd5b610a86816109a3565b8114610a9157600080fd5b50565b600081359050610aa381610a7d565b92915050565b600080fd5b6000601f19601f8301169050919050565b7f4e487b7100000000000000000000000000000000000000000000000000000000600052604160045260246000fd5b610af782610aae565b810181811067ffffffffffffffff82111715610b1657610b15610abf565b5b80604052505050565b6000610b29610a69565b9050610b358282610aee565b919050565b600067ffffffffffffffff821115610b5557610b54610abf565b5b602082029050602081019050919050565b600080fd5b6000610b7e610b7984610b3a565b610b1f565b90508083825260208201905060208402830185811115610ba157610ba0610b66565b5b835b81811015610bca5780610bb68882610a94565b845260208401935050602081019050610ba3565b5050509392505050565b600082601f830112610be957610be8610aa9565b5b8135610bf9848260208601610b6b565b91505092915050565b60008060408385031215610c1957610c18610a73565b5b6000610c2785828601610a94565b925050602083013567ffffffffffffffff811115610c4857610c47610a78565b5b610c5485828601610bd4565b9150509250929050565b600080fd5b60008083601f840112610c7957610c78610aa9565b5b8235905067ffffffffffffffff811115610c9657610c95610c5e565b5b602083019150836001820283011115610cb257610cb1610b66565b5b9250929050565b60008060208385031215610cd057610ccf610a73565b5b600083013567ffffffffffffffff811115610cee57610ced610a78565b5b610cfa85828601610c63565b92509250509250929050565b600073ffffffffffffffffffffffffffffffffffffffff82169050919050565b6000610d3182610d06565b9050919050565b610d4181610d26565b82525050565b6000602082019050610d5c6000830184610d38565b92915050565b600080fd5b600067ffffffffffffffff821115610d8257610d81610abf565b5b610d8b82610aae565b9050602081019050919050565b82818337600083830152505050565b6000610dba610db584610d67565b610b1f565b905082815260208101848484011115610dd657610dd5610d62565b5b610de1848285610d98565b509392505050565b600082601f830112610dfe57610dfd610aa9565b5b8135610e0e848260208601610da7565b91505092915050565b600060208284031215610e2d57610e2c610a73565b5b600082013567ffffffffffffffff811115610e4b57610e4a610a78565b5b610e5784828501610de9565b91505092915050565b60008115159050919050565b610e7581610e60565b82525050565b600081519050919050565b600082825260208201905092915050565b60005b83811015610eb5578082015181840152602081019050610e9a565b60008484015250505050565b6000610ecc82610e7b565b610ed68185610e86565b9350610ee6818560208601610e97565b610eef81610aae565b840191505092915050565b6000604082019050610f0f6000830185610e6c565b8181036020830152610f218184610ec1565b90509392505050565b600060208284031215610f4057610f3f610a73565b5b6000610f4e84828501610a94565b91505092915050565b6000610f6282610d06565b9050919050565b610f7281610f57565b82525050565b6000602082019050610f8d6000830184610f69565b92915050565b6000604082019050610fa86000830185610d38565b610fb56020830184610d38565b9392505050565b6000819050919050565b610fcf81610fbc565b82525050565b600067ffffffffffffffff82169050919050565b610ff281610fd5565b82525050565b600061ffff82169050919050565b61100f81610ff8565b82525050565b600063ffffffff82169050919050565b61102e81611015565b82525050565b600060a0820190506110496000830188610fc6565b6110566020830187610fe9565b6110636040830186611006565b6110706060830185611025565b61107d6080830184611025565b9695505050505050565b60008151905061109681610a7d565b92915050565b6000602082840312156110b2576110b1610a73565b5b60006110c084828501611087565b91505092915050565b7f4e487b7100000000000000000000000000000000000000000000000000000000600052601160045260246000fd5b6000611103826109a3565b915061110e836109a3565b9250828203905081811115611126576111256110c9565b5b92915050565b7f4e487b7100000000000000000000000000000000000000000000000000000000600052603260045260246000fd5b7f4e487b7100000000000000000000000000000000000000000000000000000000600052601260045260246000fd5b6000611195826109a3565b91506111a0836109a3565b9250826111b0576111af61115b565b5b828206905092915050565b600081905092915050565b50565b60006111d66000836111bb565b91506111e1826111c6565b600082019050919050565b60006111f7826111c9565b9150819050919050565b6000819050919050565b600061122661122161121c84610d06565b611201565b610d06565b9050919050565b60006112388261120b565b9050919050565b600061124a8261122d565b9050919050565b61125a8161123f565b82525050565b60006020820190506112756000830184611251565b9291505056fea26469706673582212201b3fc27f413347f6995afc4d9e261dae95f7847d98bbe95f148e0a9e5c07487664736f6c63430008130033",
  "linkReferences": {},
  "deployedLinkReferences": {}
}