{
  "_format": "hh-sol-artifact-1",
  "contractName": "Raffle",
  "sourceName": "contracts/Raffle.sol",
  "abi": [
    {
      "inputs": [
        {
          "internalType": "uint256",
          "name": "_entranceFee",
          "type": "uint256"
        }
      ],
      "stateMutability": "nonpayable",
      "type": "constructor"
    },
    {
      "inputs": [],
      "name": "Raflle__NotEnoughEth",
      "type": "error"
    },
    {
      "inputs": [],
      "name": "enterRaffle",
      "outputs": [],
      "stateMutability": "payable",
      "type": "function"
    }
  ],
  "bytecode": "0x608060405234801561001057600080fd5b506040516101503803806101508339818101604052810190610032919061007a565b80600081905550506100a7565b600080fd5b6000819050919050565b61005781610044565b811461006257600080fd5b50565b6000815190506100748161004e565b92915050565b6000602082840312156100905761008f61003f565b5b600061009e84828501610065565b91505092915050565b609b806100b56000396000f3fe608060405260043610601c5760003560e01c80632cfcc539146021575b600080fd5b60276029565b005b60005434146063576040517f9c67b89800000000000000000000000000000000000000000000000000000000815260040160405180910390fd5b56fea26469706673582212208f6c920744ee82af80dcf03a464213f0af6254fe36b30cf5dacd26c5a55280ce64736f6c63430008130033",
  "linkReferences": {},
  "deployedLinkReferences": {}
}