{
  "_format": "hh-sol-artifact-1",
  "contractName": "Raffle",
  "sourceName": "contracts/Raffle.sol",
  "abi": [
    {
      "inputs": [
        {
          "internalType": "uint256",
          "name": "_entranceFee",
          "type": "uint256"
        },
        {
          "internalType": "address",
          "name": "_VRFCoordinatorAddress",
          "type": "address"
        },
        {
          "internalType": "uint64",
          "name": "_subscriptionId",
          "type": "uint64"
        },
        {
          "internalType": "bytes32",
          "name": "_gasLane",
          "type": "bytes32"
        },
        {
          "internalType": "uint32",
          "name": "_callBackGasLimit",
          "type": "uint32"
        }
      ],
      "stateMutability": "nonpayable",
      "type": "constructor"
    },
    {
      "inputs": [
        {
          "internalType": "address",
          "name": "have",
          "type": "address"
        },
        {
          "internalType": "address",
          "name": "want",
          "type": "address"
        }
      ],
      "name": "OnlyCoordinatorCanFulfill",
      "type": "error"
    },
    {
      "inputs": [],
      "name": "Raffle__NotEnoughEth",
      "type": "error"
    },
    {
      "anonymous": false,
      "inputs": [
        {
          "indexed": true,
          "internalType": "address",
          "name": "player",
          "type": "address"
        }
      ],
      "name": "RaffleEntered",
      "type": "event"
    },
    {
      "anonymous": false,
      "inputs": [],
      "name": "RandomWordsRequested",
      "type": "event"
    },
    {
      "anonymous": false,
      "inputs": [],
      "name": "RequestFulfilled",
      "type": "event"
    },
    {
      "inputs": [],
      "name": "enterRaffle",
      "outputs": [],
      "stateMutability": "payable",
      "type": "function"
    },
    {
      "inputs": [
        {
          "internalType": "uint256",
          "name": "index",
          "type": "uint256"
        }
      ],
      "name": "getPlayer",
      "outputs": [
        {
          "internalType": "address",
          "name": "",
          "type": "address"
        }
      ],
      "stateMutability": "view",
      "type": "function"
    },
    {
      "inputs": [],
      "name": "getRaffleState",
      "outputs": [
        {
          "internalType": "enum Raffle.RaffleState",
          "name": "",
          "type": "uint8"
        }
      ],
      "stateMutability": "view",
      "type": "function"
    },
    {
      "inputs": [
        {
          "internalType": "uint256",
          "name": "",
          "type": "uint256"
        }
      ],
      "name": "players",
      "outputs": [
        {
          "internalType": "address payable",
          "name": "",
          "type": "address"
        }
      ],
      "stateMutability": "view",
      "type": "function"
    },
    {
      "inputs": [
        {
          "internalType": "uint256",
          "name": "requestId",
          "type": "uint256"
        },
        {
          "internalType": "uint256[]",
          "name": "randomWords",
          "type": "uint256[]"
        }
      ],
      "name": "rawFulfillRandomWords",
      "outputs": [],
      "stateMutability": "nonpayable",
      "type": "function"
    },
    {
      "inputs": [],
      "name": "requestRandomWords",
      "outputs": [
        {
          "internalType": "uint256",
          "name": "requestId",
          "type": "uint256"
        }
      ],
      "stateMutability": "nonpayable",
      "type": "function"
    }
  ],
  "bytecode": "0x6101406040523480156200001257600080fd5b5060405162000d9d38038062000d9d833981810160405281019062000038919062000255565b838073ffffffffffffffffffffffffffffffffffffffff1660808173ffffffffffffffffffffffffffffffffffffffff1681525050508460a081815250508373ffffffffffffffffffffffffffffffffffffffff1660c08173ffffffffffffffffffffffffffffffffffffffff16815250508267ffffffffffffffff1660e08167ffffffffffffffff16815250508161010081815250508063ffffffff166101208163ffffffff16815250505050505050620002dd565b600080fd5b6000819050919050565b6200010981620000f4565b81146200011557600080fd5b50565b6000815190506200012981620000fe565b92915050565b600073ffffffffffffffffffffffffffffffffffffffff82169050919050565b60006200015c826200012f565b9050919050565b6200016e816200014f565b81146200017a57600080fd5b50565b6000815190506200018e8162000163565b92915050565b600067ffffffffffffffff82169050919050565b620001b38162000194565b8114620001bf57600080fd5b50565b600081519050620001d381620001a8565b92915050565b6000819050919050565b620001ee81620001d9565b8114620001fa57600080fd5b50565b6000815190506200020e81620001e3565b92915050565b600063ffffffff82169050919050565b6200022f8162000214565b81146200023b57600080fd5b50565b6000815190506200024f8162000224565b92915050565b600080600080600060a08688031215620002745762000273620000ef565b5b6000620002848882890162000118565b955050602062000297888289016200017d565b9450506040620002aa88828901620001c2565b9350506060620002bd88828901620001fd565b9250506080620002d0888289016200023e565b9150509295509295909350565b60805160a05160c05160e0516101005161012051610a696200033460003960006103b90152600061037501526000610396015260006103390152600061023601526000818161017601526101ca0152610a696000f3fe6080604052600436106100555760003560e01c8063115cbaf51461005a5780631fe543e3146100855780632cfcc539146100ae578063e0c86289146100b8578063e55ae4e8146100e3578063f71d96cb14610120575b600080fd5b34801561006657600080fd5b5061006f61015d565b60405161007c91906105c5565b60405180910390f35b34801561009157600080fd5b506100ac60048036038101906100a79190610783565b610174565b005b6100b6610234565b005b3480156100c457600080fd5b506100cd610335565b6040516100da91906107ee565b60405180910390f35b3480156100ef57600080fd5b5061010a60048036038101906101059190610809565b610498565b6040516101179190610877565b60405180910390f35b34801561012c57600080fd5b5061014760048036038101906101429190610809565b6104df565b60405161015491906108b3565b60405180910390f35b6000600160009054906101000a900460ff16905090565b7f000000000000000000000000000000000000000000000000000000000000000073ffffffffffffffffffffffffffffffffffffffff163373ffffffffffffffffffffffffffffffffffffffff161461022657337f00000000000000000000000000000000000000000000000000000000000000006040517f1cf993f400000000000000000000000000000000000000000000000000000000815260040161021d9291906108ce565b60405180910390fd5b610230828261051e565b5050565b7f0000000000000000000000000000000000000000000000000000000000000000341461028d576040517fa10e43c700000000000000000000000000000000000000000000000000000000815260040160405180910390fd5b6000339080600181540180825580915050600190039060005260206000200160009091909190916101000a81548173ffffffffffffffffffffffffffffffffffffffff021916908373ffffffffffffffffffffffffffffffffffffffff1602179055503373ffffffffffffffffffffffffffffffffffffffff167f634f3211e3a4e43fee5a21ad9f87ca153b300fc78b1c557a2057dbe9c63bcb4760405160405180910390a2565b60007f000000000000000000000000000000000000000000000000000000000000000073ffffffffffffffffffffffffffffffffffffffff16635d3b1d307f00000000000000000000000000000000000000000000000000000000000000007f000000000000000000000000000000000000000000000000000000000000000060037f000000000000000000000000000000000000000000000000000000000000000060016040518663ffffffff1660e01b81526004016103fa95949392919061096f565b6020604051808303816000875af1158015610419573d6000803e3d6000fd5b505050506040513d601f19601f8201168201806040525081019061043d91906109d7565b905060018060006101000a81548160ff021916908360018111156104645761046361054e565b5b02179055507f9febdb142b43c394cabeeceb11d96378f8b7276dcae0bc767134ae7ecc8db9f860405160405180910390a190565b60008082815481106104ad576104ac610a04565b5b9060005260206000200160009054906101000a900473ffffffffffffffffffffffffffffffffffffffff169050919050565b600081815481106104ef57600080fd5b906000526020600020016000915054906101000a900473ffffffffffffffffffffffffffffffffffffffff1681565b7f6a46efe4876b9c4248dd4fdc104eeab01f41dfb74fc20706cd4ead87e5f36cc860405160405180910390a15050565b7f4e487b7100000000000000000000000000000000000000000000000000000000600052602160045260246000fd5b6002811061058e5761058d61054e565b5b50565b600081905061059f8261057d565b919050565b60006105af82610591565b9050919050565b6105bf816105a4565b82525050565b60006020820190506105da60008301846105b6565b92915050565b6000604051905090565b600080fd5b600080fd5b6000819050919050565b610607816105f4565b811461061257600080fd5b50565b600081359050610624816105fe565b92915050565b600080fd5b6000601f19601f8301169050919050565b7f4e487b7100000000000000000000000000000000000000000000000000000000600052604160045260246000fd5b6106788261062f565b810181811067ffffffffffffffff8211171561069757610696610640565b5b80604052505050565b60006106aa6105e0565b90506106b6828261066f565b919050565b600067ffffffffffffffff8211156106d6576106d5610640565b5b602082029050602081019050919050565b600080fd5b60006106ff6106fa846106bb565b6106a0565b90508083825260208201905060208402830185811115610722576107216106e7565b5b835b8181101561074b57806107378882610615565b845260208401935050602081019050610724565b5050509392505050565b600082601f83011261076a5761076961062a565b5b813561077a8482602086016106ec565b91505092915050565b6000806040838503121561079a576107996105ea565b5b60006107a885828601610615565b925050602083013567ffffffffffffffff8111156107c9576107c86105ef565b5b6107d585828601610755565b9150509250929050565b6107e8816105f4565b82525050565b600060208201905061080360008301846107df565b92915050565b60006020828403121561081f5761081e6105ea565b5b600061082d84828501610615565b91505092915050565b600073ffffffffffffffffffffffffffffffffffffffff82169050919050565b600061086182610836565b9050919050565b61087181610856565b82525050565b600060208201905061088c6000830184610868565b92915050565b600061089d82610836565b9050919050565b6108ad81610892565b82525050565b60006020820190506108c860008301846108a4565b92915050565b60006040820190506108e36000830185610868565b6108f06020830184610868565b9392505050565b6000819050919050565b61090a816108f7565b82525050565b600067ffffffffffffffff82169050919050565b61092d81610910565b82525050565b600061ffff82169050919050565b61094a81610933565b82525050565b600063ffffffff82169050919050565b61096981610950565b82525050565b600060a0820190506109846000830188610901565b6109916020830187610924565b61099e6040830186610941565b6109ab6060830185610960565b6109b86080830184610960565b9695505050505050565b6000815190506109d1816105fe565b92915050565b6000602082840312156109ed576109ec6105ea565b5b60006109fb848285016109c2565b91505092915050565b7f4e487b7100000000000000000000000000000000000000000000000000000000600052603260045260246000fdfea264697066735822122032357d15e4c6f7700fa5ff85d1d689a3af2f338bf3a97b4c75c12f04f385d87964736f6c63430008130033",
  "linkReferences": {},
  "deployedLinkReferences": {}
}